{
	"contracts/LendingPlatformWithCollateral.sol": {
		"LendingPlatformWithCollateral": {
			"abi": [
				{
					"inputs": [
						{
							"internalType": "contract IERC20",
							"name": "_token",
							"type": "address"
						},
						{
							"internalType": "uint256",
							"name": "_interestRate",
							"type": "uint256"
						}
					],
					"stateMutability": "nonpayable",
					"type": "constructor"
				},
				{
					"inputs": [
						{
							"internalType": "uint256",
							"name": "_amount",
							"type": "uint256"
						}
					],
					"name": "borrow",
					"outputs": [],
					"stateMutability": "nonpayable",
					"type": "function"
				},
				{
					"inputs": [
						{
							"internalType": "address",
							"name": "",
							"type": "address"
						}
					],
					"name": "borrowStartTime",
					"outputs": [
						{
							"internalType": "uint256",
							"name": "",
							"type": "uint256"
						}
					],
					"stateMutability": "view",
					"type": "function"
				},
				{
					"inputs": [
						{
							"internalType": "address",
							"name": "",
							"type": "address"
						}
					],
					"name": "borrowingBalance",
					"outputs": [
						{
							"internalType": "uint256",
							"name": "",
							"type": "uint256"
						}
					],
					"stateMutability": "view",
					"type": "function"
				},
				{
					"inputs": [
						{
							"internalType": "uint256",
							"name": "_amount",
							"type": "uint256"
						},
						{
							"internalType": "uint256",
							"name": "_duration",
							"type": "uint256"
						}
					],
					"name": "calculateInterest",
					"outputs": [
						{
							"internalType": "uint256",
							"name": "",
							"type": "uint256"
						}
					],
					"stateMutability": "view",
					"type": "function"
				},
				{
					"inputs": [
						{
							"internalType": "address",
							"name": "",
							"type": "address"
						}
					],
					"name": "collateralBalance",
					"outputs": [
						{
							"internalType": "uint256",
							"name": "",
							"type": "uint256"
						}
					],
					"stateMutability": "view",
					"type": "function"
				},
				{
					"inputs": [],
					"name": "collateralRatio",
					"outputs": [
						{
							"internalType": "uint256",
							"name": "",
							"type": "uint256"
						}
					],
					"stateMutability": "view",
					"type": "function"
				},
				{
					"inputs": [],
					"name": "depositCollateral",
					"outputs": [],
					"stateMutability": "payable",
					"type": "function"
				},
				{
					"inputs": [],
					"name": "interestRate",
					"outputs": [
						{
							"internalType": "uint256",
							"name": "",
							"type": "uint256"
						}
					],
					"stateMutability": "view",
					"type": "function"
				},
				{
					"inputs": [
						{
							"internalType": "uint256",
							"name": "_amount",
							"type": "uint256"
						}
					],
					"name": "lend",
					"outputs": [],
					"stateMutability": "nonpayable",
					"type": "function"
				},
				{
					"inputs": [
						{
							"internalType": "address",
							"name": "",
							"type": "address"
						}
					],
					"name": "lendingBalance",
					"outputs": [
						{
							"internalType": "uint256",
							"name": "",
							"type": "uint256"
						}
					],
					"stateMutability": "view",
					"type": "function"
				},
				{
					"inputs": [],
					"name": "repay",
					"outputs": [],
					"stateMutability": "nonpayable",
					"type": "function"
				},
				{
					"inputs": [],
					"name": "token",
					"outputs": [
						{
							"internalType": "contract IERC20",
							"name": "",
							"type": "address"
						}
					],
					"stateMutability": "view",
					"type": "function"
				},
				{
					"inputs": [
						{
							"internalType": "uint256",
							"name": "_amount",
							"type": "uint256"
						}
					],
					"name": "withdrawCollateral",
					"outputs": [],
					"stateMutability": "nonpayable",
					"type": "function"
				},
				{
					"stateMutability": "payable",
					"type": "receive"
				}
			],
			"devdoc": {
				"kind": "dev",
				"methods": {},
				"version": 1
			},
			"evm": {
				"assembly": "    /* \"contracts/LendingPlatformWithCollateral.sol\":186:3441  contract LendingPlatformWithCollateral is ReentrancyGuard {... */\n  mstore(0x40, 0x80)\n    /* \"contracts/LendingPlatformWithCollateral.sol\":578:581  150 */\n  0x96\n    /* \"contracts/LendingPlatformWithCollateral.sol\":545:581  uint256 public collateralRatio = 150 */\n  0x07\n  sstore\n    /* \"contracts/LendingPlatformWithCollateral.sol\":618:740  constructor(IERC20 _token, uint256 _interestRate) {... */\n  callvalue\n  dup1\n  iszero\n  tag_1\n  jumpi\n  revert(0x00, 0x00)\ntag_1:\n  pop\n  mload(0x40)\n  sub(codesize, bytecodeSize)\n  dup1\n  bytecodeSize\n  dup4\n  codecopy\n  dup2\n  dup2\n  add\n  0x40\n  mstore\n  dup2\n  add\n  swap1\n  tag_2\n  swap2\n  swap1\n  tag_3\n  jump\t// in\ntag_2:\n    /* \"@openzeppelin/contracts/security/ReentrancyGuard.sol\":1716:1717  1 */\n  0x01\n    /* \"@openzeppelin/contracts/security/ReentrancyGuard.sol\":1821:1828  _status */\n  0x00\n    /* \"@openzeppelin/contracts/security/ReentrancyGuard.sol\":1821:1843  _status = _NOT_ENTERED */\n  dup2\n  swap1\n  sstore\n  pop\n    /* \"contracts/LendingPlatformWithCollateral.sol\":687:693  _token */\n  dup2\n    /* \"contracts/LendingPlatformWithCollateral.sol\":679:684  token */\n  0x01\n  0x00\n    /* \"contracts/LendingPlatformWithCollateral.sol\":679:693  token = _token */\n  0x0100\n  exp\n  dup2\n  sload\n  dup2\n  0xffffffffffffffffffffffffffffffffffffffff\n  mul\n  not\n  and\n  swap1\n  dup4\n  0xffffffffffffffffffffffffffffffffffffffff\n  and\n  mul\n  or\n  swap1\n  sstore\n  pop\n    /* \"contracts/LendingPlatformWithCollateral.sol\":719:732  _interestRate */\n  dup1\n    /* \"contracts/LendingPlatformWithCollateral.sol\":704:716  interestRate */\n  0x02\n    /* \"contracts/LendingPlatformWithCollateral.sol\":704:732  interestRate = _interestRate */\n  dup2\n  swap1\n  sstore\n  pop\n    /* \"contracts/LendingPlatformWithCollateral.sol\":618:740  constructor(IERC20 _token, uint256 _interestRate) {... */\n  pop\n  pop\n    /* \"contracts/LendingPlatformWithCollateral.sol\":186:3441  contract LendingPlatformWithCollateral is ReentrancyGuard {... */\n  jump(tag_8)\n    /* \"#utility.yul\":88:205   */\ntag_10:\n    /* \"#utility.yul\":197:198   */\n  0x00\n    /* \"#utility.yul\":194:195   */\n  0x00\n    /* \"#utility.yul\":187:199   */\n  revert\n    /* \"#utility.yul\":334:460   */\ntag_12:\n    /* \"#utility.yul\":371:378   */\n  0x00\n    /* \"#utility.yul\":411:453   */\n  0xffffffffffffffffffffffffffffffffffffffff\n    /* \"#utility.yul\":404:409   */\n  dup3\n    /* \"#utility.yul\":400:454   */\n  and\n    /* \"#utility.yul\":389:454   */\n  swap1\n  pop\n    /* \"#utility.yul\":334:460   */\n  swap2\n  swap1\n  pop\n  jump\t// out\n    /* \"#utility.yul\":466:562   */\ntag_13:\n    /* \"#utility.yul\":503:510   */\n  0x00\n    /* \"#utility.yul\":532:556   */\n  tag_26\n    /* \"#utility.yul\":550:555   */\n  dup3\n    /* \"#utility.yul\":532:556   */\n  tag_12\n  jump\t// in\ntag_26:\n    /* \"#utility.yul\":521:556   */\n  swap1\n  pop\n    /* \"#utility.yul\":466:562   */\n  swap2\n  swap1\n  pop\n  jump\t// out\n    /* \"#utility.yul\":568:678   */\ntag_14:\n    /* \"#utility.yul\":619:626   */\n  0x00\n    /* \"#utility.yul\":648:672   */\n  tag_28\n    /* \"#utility.yul\":666:671   */\n  dup3\n    /* \"#utility.yul\":648:672   */\n  tag_13\n  jump\t// in\ntag_28:\n    /* \"#utility.yul\":637:672   */\n  swap1\n  pop\n    /* \"#utility.yul\":568:678   */\n  swap2\n  swap1\n  pop\n  jump\t// out\n    /* \"#utility.yul\":684:834   */\ntag_15:\n    /* \"#utility.yul\":771:809   */\n  tag_30\n    /* \"#utility.yul\":803:808   */\n  dup2\n    /* \"#utility.yul\":771:809   */\n  tag_14\n  jump\t// in\ntag_30:\n    /* \"#utility.yul\":764:769   */\n  dup2\n    /* \"#utility.yul\":761:810   */\n  eq\n    /* \"#utility.yul\":751:828   */\n  tag_31\n  jumpi\n    /* \"#utility.yul\":824:825   */\n  0x00\n    /* \"#utility.yul\":821:822   */\n  0x00\n    /* \"#utility.yul\":814:826   */\n  revert\n    /* \"#utility.yul\":751:828   */\ntag_31:\n    /* \"#utility.yul\":684:834   */\n  pop\n  jump\t// out\n    /* \"#utility.yul\":840:1011   */\ntag_16:\n    /* \"#utility.yul\":911:916   */\n  0x00\n    /* \"#utility.yul\":942:948   */\n  dup2\n    /* \"#utility.yul\":936:949   */\n  mload\n    /* \"#utility.yul\":927:949   */\n  swap1\n  pop\n    /* \"#utility.yul\":958:1005   */\n  tag_33\n    /* \"#utility.yul\":999:1004   */\n  dup2\n    /* \"#utility.yul\":958:1005   */\n  tag_15\n  jump\t// in\ntag_33:\n    /* \"#utility.yul\":840:1011   */\n  swap3\n  swap2\n  pop\n  pop\n  jump\t// out\n    /* \"#utility.yul\":1017:1094   */\ntag_17:\n    /* \"#utility.yul\":1054:1061   */\n  0x00\n    /* \"#utility.yul\":1083:1088   */\n  dup2\n    /* \"#utility.yul\":1072:1088   */\n  swap1\n  pop\n    /* \"#utility.yul\":1017:1094   */\n  swap2\n  swap1\n  pop\n  jump\t// out\n    /* \"#utility.yul\":1100:1222   */\ntag_18:\n    /* \"#utility.yul\":1173:1197   */\n  tag_36\n    /* \"#utility.yul\":1191:1196   */\n  dup2\n    /* \"#utility.yul\":1173:1197   */\n  tag_17\n  jump\t// in\ntag_36:\n    /* \"#utility.yul\":1166:1171   */\n  dup2\n    /* \"#utility.yul\":1163:1198   */\n  eq\n    /* \"#utility.yul\":1153:1216   */\n  tag_37\n  jumpi\n    /* \"#utility.yul\":1212:1213   */\n  0x00\n    /* \"#utility.yul\":1209:1210   */\n  0x00\n    /* \"#utility.yul\":1202:1214   */\n  revert\n    /* \"#utility.yul\":1153:1216   */\ntag_37:\n    /* \"#utility.yul\":1100:1222   */\n  pop\n  jump\t// out\n    /* \"#utility.yul\":1228:1371   */\ntag_19:\n    /* \"#utility.yul\":1285:1290   */\n  0x00\n    /* \"#utility.yul\":1316:1322   */\n  dup2\n    /* \"#utility.yul\":1310:1323   */\n  mload\n    /* \"#utility.yul\":1301:1323   */\n  swap1\n  pop\n    /* \"#utility.yul\":1332:1365   */\n  tag_39\n    /* \"#utility.yul\":1359:1364   */\n  dup2\n    /* \"#utility.yul\":1332:1365   */\n  tag_18\n  jump\t// in\ntag_39:\n    /* \"#utility.yul\":1228:1371   */\n  swap3\n  swap2\n  pop\n  pop\n  jump\t// out\n    /* \"#utility.yul\":1377:1912   */\ntag_3:\n    /* \"#utility.yul\":1470:1476   */\n  0x00\n    /* \"#utility.yul\":1478:1484   */\n  0x00\n    /* \"#utility.yul\":1527:1529   */\n  0x40\n    /* \"#utility.yul\":1515:1524   */\n  dup4\n    /* \"#utility.yul\":1506:1513   */\n  dup6\n    /* \"#utility.yul\":1502:1525   */\n  sub\n    /* \"#utility.yul\":1498:1530   */\n  slt\n    /* \"#utility.yul\":1495:1614   */\n  iszero\n  tag_41\n  jumpi\n    /* \"#utility.yul\":1533:1612   */\n  tag_42\n  tag_10\n  jump\t// in\ntag_42:\n    /* \"#utility.yul\":1495:1614   */\ntag_41:\n    /* \"#utility.yul\":1653:1654   */\n  0x00\n    /* \"#utility.yul\":1678:1756   */\n  tag_43\n    /* \"#utility.yul\":1748:1755   */\n  dup6\n    /* \"#utility.yul\":1739:1745   */\n  dup3\n    /* \"#utility.yul\":1728:1737   */\n  dup7\n    /* \"#utility.yul\":1724:1746   */\n  add\n    /* \"#utility.yul\":1678:1756   */\n  tag_16\n  jump\t// in\ntag_43:\n    /* \"#utility.yul\":1668:1756   */\n  swap3\n  pop\n    /* \"#utility.yul\":1624:1766   */\n  pop\n    /* \"#utility.yul\":1805:1807   */\n  0x20\n    /* \"#utility.yul\":1831:1895   */\n  tag_44\n    /* \"#utility.yul\":1887:1894   */\n  dup6\n    /* \"#utility.yul\":1878:1884   */\n  dup3\n    /* \"#utility.yul\":1867:1876   */\n  dup7\n    /* \"#utility.yul\":1863:1885   */\n  add\n    /* \"#utility.yul\":1831:1895   */\n  tag_19\n  jump\t// in\ntag_44:\n    /* \"#utility.yul\":1821:1895   */\n  swap2\n  pop\n    /* \"#utility.yul\":1776:1905   */\n  pop\n    /* \"#utility.yul\":1377:1912   */\n  swap3\n  pop\n  swap3\n  swap1\n  pop\n  jump\t// out\n    /* \"contracts/LendingPlatformWithCollateral.sol\":186:3441  contract LendingPlatformWithCollateral is ReentrancyGuard {... */\ntag_8:\n  dataSize(sub_0)\n  dup1\n  dataOffset(sub_0)\n  0x00\n  codecopy\n  0x00\n  return\nstop\n\nsub_0: assembly {\n        /* \"contracts/LendingPlatformWithCollateral.sol\":186:3441  contract LendingPlatformWithCollateral is ReentrancyGuard {... */\n      mstore(0x40, 0x80)\n      jumpi(tag_1, lt(calldatasize, 0x04))\n      shr(0xe0, calldataload(0x00))\n      dup1\n      0xa6aa57ce\n      gt\n      tag_16\n      jumpi\n      dup1\n      0xc5ebeaec\n      gt\n      tag_17\n      jumpi\n      dup1\n      0xc5ebeaec\n      eq\n      tag_12\n      jumpi\n      dup1\n      0xdad919ec\n      eq\n      tag_13\n      jumpi\n      dup1\n      0xefdd7c07\n      eq\n      tag_14\n      jumpi\n      dup1\n      0xfc0c546a\n      eq\n      tag_15\n      jumpi\n      jump(tag_2)\n    tag_17:\n      dup1\n      0xa6aa57ce\n      eq\n      tag_9\n      jumpi\n      dup1\n      0xb4eae1cb\n      eq\n      tag_10\n      jumpi\n      dup1\n      0xb750333e\n      eq\n      tag_11\n      jumpi\n      jump(tag_2)\n    tag_16:\n      dup1\n      0x402d8883\n      eq\n      tag_3\n      jumpi\n      dup1\n      0x6112fe2e\n      eq\n      tag_4\n      jumpi\n      dup1\n      0x6f758140\n      eq\n      tag_5\n      jumpi\n      dup1\n      0x7c3a00fd\n      eq\n      tag_6\n      jumpi\n      dup1\n      0x7f10883b\n      eq\n      tag_7\n      jumpi\n      dup1\n      0xa1bf2840\n      eq\n      tag_8\n      jumpi\n      jump(tag_2)\n    tag_1:\n      jumpi(tag_2, calldatasize)\n        /* \"contracts/LendingPlatformWithCollateral.sol\":3421:3430  msg.value */\n      callvalue\n        /* \"contracts/LendingPlatformWithCollateral.sol\":3388:3405  collateralBalance */\n      0x06\n        /* \"contracts/LendingPlatformWithCollateral.sol\":3388:3417  collateralBalance[msg.sender] */\n      0x00\n        /* \"contracts/LendingPlatformWithCollateral.sol\":3406:3416  msg.sender */\n      caller\n        /* \"contracts/LendingPlatformWithCollateral.sol\":3388:3417  collateralBalance[msg.sender] */\n      0xffffffffffffffffffffffffffffffffffffffff\n      and\n      0xffffffffffffffffffffffffffffffffffffffff\n      and\n      dup2\n      mstore\n      0x20\n      add\n      swap1\n      dup2\n      mstore\n      0x20\n      add\n      0x00\n      keccak256\n      0x00\n        /* \"contracts/LendingPlatformWithCollateral.sol\":3388:3430  collateralBalance[msg.sender] += msg.value */\n      dup3\n      dup3\n      sload\n      tag_20\n      swap2\n      swap1\n      tag_21\n      jump\t// in\n    tag_20:\n      swap3\n      pop\n      pop\n      dup2\n      swap1\n      sstore\n      stop\n        /* \"contracts/LendingPlatformWithCollateral.sol\":186:3441  contract LendingPlatformWithCollateral is ReentrancyGuard {... */\n    tag_2:\n      revert(0x00, 0x00)\n        /* \"contracts/LendingPlatformWithCollateral.sol\":1898:2652  function repay() external nonReentrant {... */\n    tag_3:\n      callvalue\n      dup1\n      iszero\n      tag_22\n      jumpi\n      revert(0x00, 0x00)\n    tag_22:\n      pop\n      tag_23\n      tag_24\n      jump\t// in\n    tag_23:\n      stop\n        /* \"contracts/LendingPlatformWithCollateral.sol\":2744:3085  function withdrawCollateral(uint256 _amount) external nonReentrant {... */\n    tag_4:\n      callvalue\n      dup1\n      iszero\n      tag_25\n      jumpi\n      revert(0x00, 0x00)\n    tag_25:\n      pop\n      tag_26\n      0x04\n      dup1\n      calldatasize\n      sub\n      dup2\n      add\n      swap1\n      tag_27\n      swap2\n      swap1\n      tag_28\n      jump\t// in\n    tag_27:\n      tag_29\n      jump\t// in\n    tag_26:\n      stop\n        /* \"contracts/LendingPlatformWithCollateral.sol\":1111:1283  function depositCollateral() external payable nonReentrant {... */\n    tag_5:\n      tag_30\n      tag_31\n      jump\t// in\n    tag_30:\n      stop\n        /* \"contracts/LendingPlatformWithCollateral.sol\":277:304  uint256 public interestRate */\n    tag_6:\n      callvalue\n      dup1\n      iszero\n      tag_32\n      jumpi\n      revert(0x00, 0x00)\n    tag_32:\n      pop\n      tag_33\n      tag_34\n      jump\t// in\n    tag_33:\n      mload(0x40)\n      tag_35\n      swap2\n      swap1\n      tag_36\n      jump\t// in\n    tag_35:\n      mload(0x40)\n      dup1\n      swap2\n      sub\n      swap1\n      return\n        /* \"contracts/LendingPlatformWithCollateral.sol\":313:362  mapping(address => uint256) public lendingBalance */\n    tag_7:\n      callvalue\n      dup1\n      iszero\n      tag_37\n      jumpi\n      revert(0x00, 0x00)\n    tag_37:\n      pop\n      tag_38\n      0x04\n      dup1\n      calldatasize\n      sub\n      dup2\n      add\n      swap1\n      tag_39\n      swap2\n      swap1\n      tag_40\n      jump\t// in\n    tag_39:\n      tag_41\n      jump\t// in\n    tag_38:\n      mload(0x40)\n      tag_42\n      swap2\n      swap1\n      tag_36\n      jump\t// in\n    tag_42:\n      mload(0x40)\n      dup1\n      swap2\n      sub\n      swap1\n      return\n        /* \"contracts/LendingPlatformWithCollateral.sol\":484:536  mapping(address => uint256) public collateralBalance */\n    tag_8:\n      callvalue\n      dup1\n      iszero\n      tag_43\n      jumpi\n      revert(0x00, 0x00)\n    tag_43:\n      pop\n      tag_44\n      0x04\n      dup1\n      calldatasize\n      sub\n      dup2\n      add\n      swap1\n      tag_45\n      swap2\n      swap1\n      tag_40\n      jump\t// in\n    tag_45:\n      tag_46\n      jump\t// in\n    tag_44:\n      mload(0x40)\n      tag_47\n      swap2\n      swap1\n      tag_36\n      jump\t// in\n    tag_47:\n      mload(0x40)\n      dup1\n      swap2\n      sub\n      swap1\n      return\n        /* \"contracts/LendingPlatformWithCollateral.sol\":800:1075  function lend(uint256 _amount) external nonReentrant {... */\n    tag_9:\n      callvalue\n      dup1\n      iszero\n      tag_48\n      jumpi\n      revert(0x00, 0x00)\n    tag_48:\n      pop\n      tag_49\n      0x04\n      dup1\n      calldatasize\n      sub\n      dup2\n      add\n      swap1\n      tag_50\n      swap2\n      swap1\n      tag_28\n      jump\t// in\n    tag_50:\n      tag_51\n      jump\t// in\n    tag_49:\n      stop\n        /* \"contracts/LendingPlatformWithCollateral.sol\":545:581  uint256 public collateralRatio = 150 */\n    tag_10:\n      callvalue\n      dup1\n      iszero\n      tag_52\n      jumpi\n      revert(0x00, 0x00)\n    tag_52:\n      pop\n      tag_53\n      tag_54\n      jump\t// in\n    tag_53:\n      mload(0x40)\n      tag_55\n      swap2\n      swap1\n      tag_36\n      jump\t// in\n    tag_55:\n      mload(0x40)\n      dup1\n      swap2\n      sub\n      swap1\n      return\n        /* \"contracts/LendingPlatformWithCollateral.sol\":369:420  mapping(address => uint256) public borrowingBalance */\n    tag_11:\n      callvalue\n      dup1\n      iszero\n      tag_56\n      jumpi\n      revert(0x00, 0x00)\n    tag_56:\n      pop\n      tag_57\n      0x04\n      dup1\n      calldatasize\n      sub\n      dup2\n      add\n      swap1\n      tag_58\n      swap2\n      swap1\n      tag_40\n      jump\t// in\n    tag_58:\n      tag_59\n      jump\t// in\n    tag_57:\n      mload(0x40)\n      tag_60\n      swap2\n      swap1\n      tag_36\n      jump\t// in\n    tag_60:\n      mload(0x40)\n      dup1\n      swap2\n      sub\n      swap1\n      return\n        /* \"contracts/LendingPlatformWithCollateral.sol\":1341:1832  function borrow(uint256 _amount) external nonReentrant {... */\n    tag_12:\n      callvalue\n      dup1\n      iszero\n      tag_61\n      jumpi\n      revert(0x00, 0x00)\n    tag_61:\n      pop\n      tag_62\n      0x04\n      dup1\n      calldatasize\n      sub\n      dup2\n      add\n      swap1\n      tag_63\n      swap2\n      swap1\n      tag_28\n      jump\t// in\n    tag_63:\n      tag_64\n      jump\t// in\n    tag_62:\n      stop\n        /* \"contracts/LendingPlatformWithCollateral.sol\":427:477  mapping(address => uint256) public borrowStartTime */\n    tag_13:\n      callvalue\n      dup1\n      iszero\n      tag_65\n      jumpi\n      revert(0x00, 0x00)\n    tag_65:\n      pop\n      tag_66\n      0x04\n      dup1\n      calldatasize\n      sub\n      dup2\n      add\n      swap1\n      tag_67\n      swap2\n      swap1\n      tag_40\n      jump\t// in\n    tag_67:\n      tag_68\n      jump\t// in\n    tag_66:\n      mload(0x40)\n      tag_69\n      swap2\n      swap1\n      tag_36\n      jump\t// in\n    tag_69:\n      mload(0x40)\n      dup1\n      swap2\n      sub\n      swap1\n      return\n        /* \"contracts/LendingPlatformWithCollateral.sol\":3134:3308  function calculateInterest(uint256 _amount, uint256 _duration) public view returns (uint256) {... */\n    tag_14:\n      callvalue\n      dup1\n      iszero\n      tag_70\n      jumpi\n      revert(0x00, 0x00)\n    tag_70:\n      pop\n      tag_71\n      0x04\n      dup1\n      calldatasize\n      sub\n      dup2\n      add\n      swap1\n      tag_72\n      swap2\n      swap1\n      tag_73\n      jump\t// in\n    tag_72:\n      tag_74\n      jump\t// in\n    tag_71:\n      mload(0x40)\n      tag_75\n      swap2\n      swap1\n      tag_36\n      jump\t// in\n    tag_75:\n      mload(0x40)\n      dup1\n      swap2\n      sub\n      swap1\n      return\n        /* \"contracts/LendingPlatformWithCollateral.sol\":251:270  IERC20 public token */\n    tag_15:\n      callvalue\n      dup1\n      iszero\n      tag_76\n      jumpi\n      revert(0x00, 0x00)\n    tag_76:\n      pop\n      tag_77\n      tag_78\n      jump\t// in\n    tag_77:\n      mload(0x40)\n      tag_79\n      swap2\n      swap1\n      tag_80\n      jump\t// in\n    tag_79:\n      mload(0x40)\n      dup1\n      swap2\n      sub\n      swap1\n      return\n        /* \"contracts/LendingPlatformWithCollateral.sol\":1898:2652  function repay() external nonReentrant {... */\n    tag_24:\n        /* \"@openzeppelin/contracts/security/ReentrancyGuard.sol\":2261:2282  _nonReentrantBefore() */\n      tag_82\n        /* \"@openzeppelin/contracts/security/ReentrancyGuard.sol\":2261:2280  _nonReentrantBefore */\n      tag_83\n        /* \"@openzeppelin/contracts/security/ReentrancyGuard.sol\":2261:2282  _nonReentrantBefore() */\n      jump\t// in\n    tag_82:\n        /* \"contracts/LendingPlatformWithCollateral.sol\":1948:1970  uint256 borrowedAmount */\n      0x00\n        /* \"contracts/LendingPlatformWithCollateral.sol\":1973:1989  borrowingBalance */\n      0x04\n        /* \"contracts/LendingPlatformWithCollateral.sol\":1973:2001  borrowingBalance[msg.sender] */\n      0x00\n        /* \"contracts/LendingPlatformWithCollateral.sol\":1990:2000  msg.sender */\n      caller\n        /* \"contracts/LendingPlatformWithCollateral.sol\":1973:2001  borrowingBalance[msg.sender] */\n      0xffffffffffffffffffffffffffffffffffffffff\n      and\n      0xffffffffffffffffffffffffffffffffffffffff\n      and\n      dup2\n      mstore\n      0x20\n      add\n      swap1\n      dup2\n      mstore\n      0x20\n      add\n      0x00\n      keccak256\n      sload\n        /* \"contracts/LendingPlatformWithCollateral.sol\":1948:2001  uint256 borrowedAmount = borrowingBalance[msg.sender] */\n      swap1\n      pop\n        /* \"contracts/LendingPlatformWithCollateral.sol\":2037:2038  0 */\n      0x00\n        /* \"contracts/LendingPlatformWithCollateral.sol\":2020:2034  borrowedAmount */\n      dup2\n        /* \"contracts/LendingPlatformWithCollateral.sol\":2020:2038  borrowedAmount > 0 */\n      gt\n        /* \"contracts/LendingPlatformWithCollateral.sol\":2012:2062  require(borrowedAmount > 0, \"No outstanding loan\") */\n      tag_85\n      jumpi\n      mload(0x40)\n      0x08c379a000000000000000000000000000000000000000000000000000000000\n      dup2\n      mstore\n      0x04\n      add\n      tag_86\n      swap1\n      tag_87\n      jump\t// in\n    tag_86:\n      mload(0x40)\n      dup1\n      swap2\n      sub\n      swap1\n      revert\n    tag_85:\n        /* \"contracts/LendingPlatformWithCollateral.sol\":2075:2091  uint256 duration */\n      0x00\n        /* \"contracts/LendingPlatformWithCollateral.sol\":2112:2127  borrowStartTime */\n      0x05\n        /* \"contracts/LendingPlatformWithCollateral.sol\":2112:2139  borrowStartTime[msg.sender] */\n      0x00\n        /* \"contracts/LendingPlatformWithCollateral.sol\":2128:2138  msg.sender */\n      caller\n        /* \"contracts/LendingPlatformWithCollateral.sol\":2112:2139  borrowStartTime[msg.sender] */\n      0xffffffffffffffffffffffffffffffffffffffff\n      and\n      0xffffffffffffffffffffffffffffffffffffffff\n      and\n      dup2\n      mstore\n      0x20\n      add\n      swap1\n      dup2\n      mstore\n      0x20\n      add\n      0x00\n      keccak256\n      sload\n        /* \"contracts/LendingPlatformWithCollateral.sol\":2094:2109  block.timestamp */\n      timestamp\n        /* \"contracts/LendingPlatformWithCollateral.sol\":2094:2139  block.timestamp - borrowStartTime[msg.sender] */\n      tag_88\n      swap2\n      swap1\n      tag_89\n      jump\t// in\n    tag_88:\n        /* \"contracts/LendingPlatformWithCollateral.sol\":2075:2139  uint256 duration = block.timestamp - borrowStartTime[msg.sender] */\n      swap1\n      pop\n        /* \"contracts/LendingPlatformWithCollateral.sol\":2150:2166  uint256 interest */\n      0x00\n        /* \"contracts/LendingPlatformWithCollateral.sol\":2169:2212  calculateInterest(borrowedAmount, duration) */\n      tag_90\n        /* \"contracts/LendingPlatformWithCollateral.sol\":2187:2201  borrowedAmount */\n      dup4\n        /* \"contracts/LendingPlatformWithCollateral.sol\":2203:2211  duration */\n      dup4\n        /* \"contracts/LendingPlatformWithCollateral.sol\":2169:2186  calculateInterest */\n      tag_74\n        /* \"contracts/LendingPlatformWithCollateral.sol\":2169:2212  calculateInterest(borrowedAmount, duration) */\n      jump\t// in\n    tag_90:\n        /* \"contracts/LendingPlatformWithCollateral.sol\":2150:2212  uint256 interest = calculateInterest(borrowedAmount, duration) */\n      swap1\n      pop\n        /* \"contracts/LendingPlatformWithCollateral.sol\":2223:2245  uint256 totalRepayment */\n      0x00\n        /* \"contracts/LendingPlatformWithCollateral.sol\":2265:2273  interest */\n      dup2\n        /* \"contracts/LendingPlatformWithCollateral.sol\":2248:2262  borrowedAmount */\n      dup5\n        /* \"contracts/LendingPlatformWithCollateral.sol\":2248:2273  borrowedAmount + interest */\n      tag_91\n      swap2\n      swap1\n      tag_21\n      jump\t// in\n    tag_91:\n        /* \"contracts/LendingPlatformWithCollateral.sol\":2223:2273  uint256 totalRepayment = borrowedAmount + interest */\n      swap1\n      pop\n        /* \"contracts/LendingPlatformWithCollateral.sol\":2294:2299  token */\n      0x01\n      0x00\n      swap1\n      sload\n      swap1\n      0x0100\n      exp\n      swap1\n      div\n      0xffffffffffffffffffffffffffffffffffffffff\n      and\n        /* \"contracts/LendingPlatformWithCollateral.sol\":2294:2312  token.transferFrom */\n      0xffffffffffffffffffffffffffffffffffffffff\n      and\n      0x23b872dd\n        /* \"contracts/LendingPlatformWithCollateral.sol\":2313:2323  msg.sender */\n      caller\n        /* \"contracts/LendingPlatformWithCollateral.sol\":2333:2337  this */\n      address\n        /* \"contracts/LendingPlatformWithCollateral.sol\":2340:2354  totalRepayment */\n      dup5\n        /* \"contracts/LendingPlatformWithCollateral.sol\":2294:2355  token.transferFrom(msg.sender, address(this), totalRepayment) */\n      mload(0x40)\n      dup5\n      0xffffffff\n      and\n      0xe0\n      shl\n      dup2\n      mstore\n      0x04\n      add\n      tag_92\n      swap4\n      swap3\n      swap2\n      swap1\n      tag_93\n      jump\t// in\n    tag_92:\n      0x20\n      mload(0x40)\n      dup1\n      dup4\n      sub\n      dup2\n      0x00\n      dup8\n      gas\n      call\n      iszero\n      dup1\n      iszero\n      tag_95\n      jumpi\n      returndatacopy(0x00, 0x00, returndatasize)\n      revert(0x00, returndatasize)\n    tag_95:\n      pop\n      pop\n      pop\n      pop\n      mload(0x40)\n      returndatasize\n      not(0x1f)\n      0x1f\n      dup3\n      add\n      and\n      dup3\n      add\n      dup1\n      0x40\n      mstore\n      pop\n      dup2\n      add\n      swap1\n      tag_96\n      swap2\n      swap1\n      tag_97\n      jump\t// in\n    tag_96:\n        /* \"contracts/LendingPlatformWithCollateral.sol\":2286:2381  require(token.transferFrom(msg.sender, address(this), totalRepayment), \"Token transfer failed\") */\n      tag_98\n      jumpi\n      mload(0x40)\n      0x08c379a000000000000000000000000000000000000000000000000000000000\n      dup2\n      mstore\n      0x04\n      add\n      tag_99\n      swap1\n      tag_100\n      jump\t// in\n    tag_99:\n      mload(0x40)\n      dup1\n      swap2\n      sub\n      swap1\n      revert\n    tag_98:\n        /* \"contracts/LendingPlatformWithCollateral.sol\":2425:2426  0 */\n      0x00\n        /* \"contracts/LendingPlatformWithCollateral.sol\":2394:2410  borrowingBalance */\n      0x04\n        /* \"contracts/LendingPlatformWithCollateral.sol\":2394:2422  borrowingBalance[msg.sender] */\n      0x00\n        /* \"contracts/LendingPlatformWithCollateral.sol\":2411:2421  msg.sender */\n      caller\n        /* \"contracts/LendingPlatformWithCollateral.sol\":2394:2422  borrowingBalance[msg.sender] */\n      0xffffffffffffffffffffffffffffffffffffffff\n      and\n      0xffffffffffffffffffffffffffffffffffffffff\n      and\n      dup2\n      mstore\n      0x20\n      add\n      swap1\n      dup2\n      mstore\n      0x20\n      add\n      0x00\n      keccak256\n        /* \"contracts/LendingPlatformWithCollateral.sol\":2394:2426  borrowingBalance[msg.sender] = 0 */\n      dup2\n      swap1\n      sstore\n      pop\n        /* \"contracts/LendingPlatformWithCollateral.sol\":2467:2468  0 */\n      0x00\n        /* \"contracts/LendingPlatformWithCollateral.sol\":2437:2452  borrowStartTime */\n      0x05\n        /* \"contracts/LendingPlatformWithCollateral.sol\":2437:2464  borrowStartTime[msg.sender] */\n      0x00\n        /* \"contracts/LendingPlatformWithCollateral.sol\":2453:2463  msg.sender */\n      caller\n        /* \"contracts/LendingPlatformWithCollateral.sol\":2437:2464  borrowStartTime[msg.sender] */\n      0xffffffffffffffffffffffffffffffffffffffff\n      and\n      0xffffffffffffffffffffffffffffffffffffffff\n      and\n      dup2\n      mstore\n      0x20\n      add\n      swap1\n      dup2\n      mstore\n      0x20\n      add\n      0x00\n      keccak256\n        /* \"contracts/LendingPlatformWithCollateral.sol\":2437:2468  borrowStartTime[msg.sender] = 0 */\n      dup2\n      swap1\n      sstore\n      pop\n        /* \"contracts/LendingPlatformWithCollateral.sol\":2481:2507  uint256 releasedCollateral */\n      0x00\n        /* \"contracts/LendingPlatformWithCollateral.sol\":2510:2527  collateralBalance */\n      0x06\n        /* \"contracts/LendingPlatformWithCollateral.sol\":2510:2539  collateralBalance[msg.sender] */\n      0x00\n        /* \"contracts/LendingPlatformWithCollateral.sol\":2528:2538  msg.sender */\n      caller\n        /* \"contracts/LendingPlatformWithCollateral.sol\":2510:2539  collateralBalance[msg.sender] */\n      0xffffffffffffffffffffffffffffffffffffffff\n      and\n      0xffffffffffffffffffffffffffffffffffffffff\n      and\n      dup2\n      mstore\n      0x20\n      add\n      swap1\n      dup2\n      mstore\n      0x20\n      add\n      0x00\n      keccak256\n      sload\n        /* \"contracts/LendingPlatformWithCollateral.sol\":2481:2539  uint256 releasedCollateral = collateralBalance[msg.sender] */\n      swap1\n      pop\n        /* \"contracts/LendingPlatformWithCollateral.sol\":2582:2583  0 */\n      0x00\n        /* \"contracts/LendingPlatformWithCollateral.sol\":2550:2567  collateralBalance */\n      0x06\n        /* \"contracts/LendingPlatformWithCollateral.sol\":2550:2579  collateralBalance[msg.sender] */\n      0x00\n        /* \"contracts/LendingPlatformWithCollateral.sol\":2568:2578  msg.sender */\n      caller\n        /* \"contracts/LendingPlatformWithCollateral.sol\":2550:2579  collateralBalance[msg.sender] */\n      0xffffffffffffffffffffffffffffffffffffffff\n      and\n      0xffffffffffffffffffffffffffffffffffffffff\n      and\n      dup2\n      mstore\n      0x20\n      add\n      swap1\n      dup2\n      mstore\n      0x20\n      add\n      0x00\n      keccak256\n        /* \"contracts/LendingPlatformWithCollateral.sol\":2550:2583  collateralBalance[msg.sender] = 0 */\n      dup2\n      swap1\n      sstore\n      pop\n        /* \"contracts/LendingPlatformWithCollateral.sol\":2604:2614  msg.sender */\n      caller\n        /* \"contracts/LendingPlatformWithCollateral.sol\":2596:2624  payable(msg.sender).transfer */\n      0xffffffffffffffffffffffffffffffffffffffff\n      and\n        /* \"contracts/LendingPlatformWithCollateral.sol\":2596:2644  payable(msg.sender).transfer(releasedCollateral) */\n      0x08fc\n        /* \"contracts/LendingPlatformWithCollateral.sol\":2625:2643  releasedCollateral */\n      dup3\n        /* \"contracts/LendingPlatformWithCollateral.sol\":2596:2644  payable(msg.sender).transfer(releasedCollateral) */\n      swap1\n      dup2\n      iszero\n      mul\n      swap1\n      mload(0x40)\n      0x00\n      mload(0x40)\n      dup1\n      dup4\n      sub\n      dup2\n      dup6\n      dup9\n      dup9\n      call\n      swap4\n      pop\n      pop\n      pop\n      pop\n      iszero\n      dup1\n      iszero\n      tag_102\n      jumpi\n      returndatacopy(0x00, 0x00, returndatasize)\n      revert(0x00, returndatasize)\n    tag_102:\n      pop\n        /* \"contracts/LendingPlatformWithCollateral.sol\":1937:2652  {... */\n      pop\n      pop\n      pop\n      pop\n      pop\n        /* \"@openzeppelin/contracts/security/ReentrancyGuard.sol\":2303:2323  _nonReentrantAfter() */\n      tag_103\n        /* \"@openzeppelin/contracts/security/ReentrancyGuard.sol\":2303:2321  _nonReentrantAfter */\n      tag_104\n        /* \"@openzeppelin/contracts/security/ReentrancyGuard.sol\":2303:2323  _nonReentrantAfter() */\n      jump\t// in\n    tag_103:\n        /* \"contracts/LendingPlatformWithCollateral.sol\":1898:2652  function repay() external nonReentrant {... */\n      jump\t// out\n        /* \"contracts/LendingPlatformWithCollateral.sol\":2744:3085  function withdrawCollateral(uint256 _amount) external nonReentrant {... */\n    tag_29:\n        /* \"@openzeppelin/contracts/security/ReentrancyGuard.sol\":2261:2282  _nonReentrantBefore() */\n      tag_106\n        /* \"@openzeppelin/contracts/security/ReentrancyGuard.sol\":2261:2280  _nonReentrantBefore */\n      tag_83\n        /* \"@openzeppelin/contracts/security/ReentrancyGuard.sol\":2261:2282  _nonReentrantBefore() */\n      jump\t// in\n    tag_106:\n        /* \"contracts/LendingPlatformWithCollateral.sol\":2862:2863  0 */\n      0x00\n        /* \"contracts/LendingPlatformWithCollateral.sol\":2830:2846  borrowingBalance */\n      0x04\n        /* \"contracts/LendingPlatformWithCollateral.sol\":2830:2858  borrowingBalance[msg.sender] */\n      0x00\n        /* \"contracts/LendingPlatformWithCollateral.sol\":2847:2857  msg.sender */\n      caller\n        /* \"contracts/LendingPlatformWithCollateral.sol\":2830:2858  borrowingBalance[msg.sender] */\n      0xffffffffffffffffffffffffffffffffffffffff\n      and\n      0xffffffffffffffffffffffffffffffffffffffff\n      and\n      dup2\n      mstore\n      0x20\n      add\n      swap1\n      dup2\n      mstore\n      0x20\n      add\n      0x00\n      keccak256\n      sload\n        /* \"contracts/LendingPlatformWithCollateral.sol\":2830:2863  borrowingBalance[msg.sender] == 0 */\n      eq\n        /* \"contracts/LendingPlatformWithCollateral.sol\":2822:2891  require(borrowingBalance[msg.sender] == 0, \"Outstanding loan exists\") */\n      tag_108\n      jumpi\n      mload(0x40)\n      0x08c379a000000000000000000000000000000000000000000000000000000000\n      dup2\n      mstore\n      0x04\n      add\n      tag_109\n      swap1\n      tag_110\n      jump\t// in\n    tag_109:\n      mload(0x40)\n      dup1\n      swap2\n      sub\n      swap1\n      revert\n    tag_108:\n        /* \"contracts/LendingPlatformWithCollateral.sol\":2921:2938  collateralBalance */\n      0x06\n        /* \"contracts/LendingPlatformWithCollateral.sol\":2921:2950  collateralBalance[msg.sender] */\n      0x00\n        /* \"contracts/LendingPlatformWithCollateral.sol\":2939:2949  msg.sender */\n      caller\n        /* \"contracts/LendingPlatformWithCollateral.sol\":2921:2950  collateralBalance[msg.sender] */\n      0xffffffffffffffffffffffffffffffffffffffff\n      and\n      0xffffffffffffffffffffffffffffffffffffffff\n      and\n      dup2\n      mstore\n      0x20\n      add\n      swap1\n      dup2\n      mstore\n      0x20\n      add\n      0x00\n      keccak256\n      sload\n        /* \"contracts/LendingPlatformWithCollateral.sol\":2910:2917  _amount */\n      dup2\n        /* \"contracts/LendingPlatformWithCollateral.sol\":2910:2950  _amount <= collateralBalance[msg.sender] */\n      gt\n      iszero\n        /* \"contracts/LendingPlatformWithCollateral.sol\":2902:2976  require(_amount <= collateralBalance[msg.sender], \"Not enough collateral\") */\n      tag_111\n      jumpi\n      mload(0x40)\n      0x08c379a000000000000000000000000000000000000000000000000000000000\n      dup2\n      mstore\n      0x04\n      add\n      tag_112\n      swap1\n      tag_113\n      jump\t// in\n    tag_112:\n      mload(0x40)\n      dup1\n      swap2\n      sub\n      swap1\n      revert\n    tag_111:\n        /* \"contracts/LendingPlatformWithCollateral.sol\":3022:3029  _amount */\n      dup1\n        /* \"contracts/LendingPlatformWithCollateral.sol\":2989:3006  collateralBalance */\n      0x06\n        /* \"contracts/LendingPlatformWithCollateral.sol\":2989:3018  collateralBalance[msg.sender] */\n      0x00\n        /* \"contracts/LendingPlatformWithCollateral.sol\":3007:3017  msg.sender */\n      caller\n        /* \"contracts/LendingPlatformWithCollateral.sol\":2989:3018  collateralBalance[msg.sender] */\n      0xffffffffffffffffffffffffffffffffffffffff\n      and\n      0xffffffffffffffffffffffffffffffffffffffff\n      and\n      dup2\n      mstore\n      0x20\n      add\n      swap1\n      dup2\n      mstore\n      0x20\n      add\n      0x00\n      keccak256\n      0x00\n        /* \"contracts/LendingPlatformWithCollateral.sol\":2989:3029  collateralBalance[msg.sender] -= _amount */\n      dup3\n      dup3\n      sload\n      tag_114\n      swap2\n      swap1\n      tag_89\n      jump\t// in\n    tag_114:\n      swap3\n      pop\n      pop\n      dup2\n      swap1\n      sstore\n      pop\n        /* \"contracts/LendingPlatformWithCollateral.sol\":3048:3058  msg.sender */\n      caller\n        /* \"contracts/LendingPlatformWithCollateral.sol\":3040:3068  payable(msg.sender).transfer */\n      0xffffffffffffffffffffffffffffffffffffffff\n      and\n        /* \"contracts/LendingPlatformWithCollateral.sol\":3040:3077  payable(msg.sender).transfer(_amount) */\n      0x08fc\n        /* \"contracts/LendingPlatformWithCollateral.sol\":3069:3076  _amount */\n      dup3\n        /* \"contracts/LendingPlatformWithCollateral.sol\":3040:3077  payable(msg.sender).transfer(_amount) */\n      swap1\n      dup2\n      iszero\n      mul\n      swap1\n      mload(0x40)\n      0x00\n      mload(0x40)\n      dup1\n      dup4\n      sub\n      dup2\n      dup6\n      dup9\n      dup9\n      call\n      swap4\n      pop\n      pop\n      pop\n      pop\n      iszero\n      dup1\n      iszero\n      tag_116\n      jumpi\n      returndatacopy(0x00, 0x00, returndatasize)\n      revert(0x00, returndatasize)\n    tag_116:\n      pop\n        /* \"@openzeppelin/contracts/security/ReentrancyGuard.sol\":2303:2323  _nonReentrantAfter() */\n      tag_117\n        /* \"@openzeppelin/contracts/security/ReentrancyGuard.sol\":2303:2321  _nonReentrantAfter */\n      tag_104\n        /* \"@openzeppelin/contracts/security/ReentrancyGuard.sol\":2303:2323  _nonReentrantAfter() */\n      jump\t// in\n    tag_117:\n        /* \"contracts/LendingPlatformWithCollateral.sol\":2744:3085  function withdrawCollateral(uint256 _amount) external nonReentrant {... */\n      pop\n      jump\t// out\n        /* \"contracts/LendingPlatformWithCollateral.sol\":1111:1283  function depositCollateral() external payable nonReentrant {... */\n    tag_31:\n        /* \"@openzeppelin/contracts/security/ReentrancyGuard.sol\":2261:2282  _nonReentrantBefore() */\n      tag_119\n        /* \"@openzeppelin/contracts/security/ReentrancyGuard.sol\":2261:2280  _nonReentrantBefore */\n      tag_83\n        /* \"@openzeppelin/contracts/security/ReentrancyGuard.sol\":2261:2282  _nonReentrantBefore() */\n      jump\t// in\n    tag_119:\n        /* \"contracts/LendingPlatformWithCollateral.sol\":1201:1202  0 */\n      0x00\n        /* \"contracts/LendingPlatformWithCollateral.sol\":1189:1198  msg.value */\n      callvalue\n        /* \"contracts/LendingPlatformWithCollateral.sol\":1189:1202  msg.value > 0 */\n      gt\n        /* \"contracts/LendingPlatformWithCollateral.sol\":1181:1222  require(msg.value > 0, \"Must send Ether\") */\n      tag_121\n      jumpi\n      mload(0x40)\n      0x08c379a000000000000000000000000000000000000000000000000000000000\n      dup2\n      mstore\n      0x04\n      add\n      tag_122\n      swap1\n      tag_123\n      jump\t// in\n    tag_122:\n      mload(0x40)\n      dup1\n      swap2\n      sub\n      swap1\n      revert\n    tag_121:\n        /* \"contracts/LendingPlatformWithCollateral.sol\":1266:1275  msg.value */\n      callvalue\n        /* \"contracts/LendingPlatformWithCollateral.sol\":1233:1250  collateralBalance */\n      0x06\n        /* \"contracts/LendingPlatformWithCollateral.sol\":1233:1262  collateralBalance[msg.sender] */\n      0x00\n        /* \"contracts/LendingPlatformWithCollateral.sol\":1251:1261  msg.sender */\n      caller\n        /* \"contracts/LendingPlatformWithCollateral.sol\":1233:1262  collateralBalance[msg.sender] */\n      0xffffffffffffffffffffffffffffffffffffffff\n      and\n      0xffffffffffffffffffffffffffffffffffffffff\n      and\n      dup2\n      mstore\n      0x20\n      add\n      swap1\n      dup2\n      mstore\n      0x20\n      add\n      0x00\n      keccak256\n      0x00\n        /* \"contracts/LendingPlatformWithCollateral.sol\":1233:1275  collateralBalance[msg.sender] += msg.value */\n      dup3\n      dup3\n      sload\n      tag_124\n      swap2\n      swap1\n      tag_21\n      jump\t// in\n    tag_124:\n      swap3\n      pop\n      pop\n      dup2\n      swap1\n      sstore\n      pop\n        /* \"@openzeppelin/contracts/security/ReentrancyGuard.sol\":2303:2323  _nonReentrantAfter() */\n      tag_125\n        /* \"@openzeppelin/contracts/security/ReentrancyGuard.sol\":2303:2321  _nonReentrantAfter */\n      tag_104\n        /* \"@openzeppelin/contracts/security/ReentrancyGuard.sol\":2303:2323  _nonReentrantAfter() */\n      jump\t// in\n    tag_125:\n        /* \"contracts/LendingPlatformWithCollateral.sol\":1111:1283  function depositCollateral() external payable nonReentrant {... */\n      jump\t// out\n        /* \"contracts/LendingPlatformWithCollateral.sol\":277:304  uint256 public interestRate */\n    tag_34:\n      sload(0x02)\n      dup2\n      jump\t// out\n        /* \"contracts/LendingPlatformWithCollateral.sol\":313:362  mapping(address => uint256) public lendingBalance */\n    tag_41:\n      mstore(0x20, 0x03)\n      dup1\n      0x00\n      mstore\n      keccak256(0x00, 0x40)\n      0x00\n      swap2\n      pop\n      swap1\n      pop\n      sload\n      dup2\n      jump\t// out\n        /* \"contracts/LendingPlatformWithCollateral.sol\":484:536  mapping(address => uint256) public collateralBalance */\n    tag_46:\n      mstore(0x20, 0x06)\n      dup1\n      0x00\n      mstore\n      keccak256(0x00, 0x40)\n      0x00\n      swap2\n      pop\n      swap1\n      pop\n      sload\n      dup2\n      jump\t// out\n        /* \"contracts/LendingPlatformWithCollateral.sol\":800:1075  function lend(uint256 _amount) external nonReentrant {... */\n    tag_51:\n        /* \"@openzeppelin/contracts/security/ReentrancyGuard.sol\":2261:2282  _nonReentrantBefore() */\n      tag_127\n        /* \"@openzeppelin/contracts/security/ReentrancyGuard.sol\":2261:2280  _nonReentrantBefore */\n      tag_83\n        /* \"@openzeppelin/contracts/security/ReentrancyGuard.sol\":2261:2282  _nonReentrantBefore() */\n      jump\t// in\n    tag_127:\n        /* \"contracts/LendingPlatformWithCollateral.sol\":882:883  0 */\n      0x00\n        /* \"contracts/LendingPlatformWithCollateral.sol\":872:879  _amount */\n      dup2\n        /* \"contracts/LendingPlatformWithCollateral.sol\":872:883  _amount > 0 */\n      gt\n        /* \"contracts/LendingPlatformWithCollateral.sol\":864:920  require(_amount > 0, \"Amount must be greater than zero\") */\n      tag_129\n      jumpi\n      mload(0x40)\n      0x08c379a000000000000000000000000000000000000000000000000000000000\n      dup2\n      mstore\n      0x04\n      add\n      tag_130\n      swap1\n      tag_131\n      jump\t// in\n    tag_130:\n      mload(0x40)\n      dup1\n      swap2\n      sub\n      swap1\n      revert\n    tag_129:\n        /* \"contracts/LendingPlatformWithCollateral.sol\":939:944  token */\n      0x01\n      0x00\n      swap1\n      sload\n      swap1\n      0x0100\n      exp\n      swap1\n      div\n      0xffffffffffffffffffffffffffffffffffffffff\n      and\n        /* \"contracts/LendingPlatformWithCollateral.sol\":939:957  token.transferFrom */\n      0xffffffffffffffffffffffffffffffffffffffff\n      and\n      0x23b872dd\n        /* \"contracts/LendingPlatformWithCollateral.sol\":958:968  msg.sender */\n      caller\n        /* \"contracts/LendingPlatformWithCollateral.sol\":978:982  this */\n      address\n        /* \"contracts/LendingPlatformWithCollateral.sol\":985:992  _amount */\n      dup5\n        /* \"contracts/LendingPlatformWithCollateral.sol\":939:993  token.transferFrom(msg.sender, address(this), _amount) */\n      mload(0x40)\n      dup5\n      0xffffffff\n      and\n      0xe0\n      shl\n      dup2\n      mstore\n      0x04\n      add\n      tag_132\n      swap4\n      swap3\n      swap2\n      swap1\n      tag_93\n      jump\t// in\n    tag_132:\n      0x20\n      mload(0x40)\n      dup1\n      dup4\n      sub\n      dup2\n      0x00\n      dup8\n      gas\n      call\n      iszero\n      dup1\n      iszero\n      tag_134\n      jumpi\n      returndatacopy(0x00, 0x00, returndatasize)\n      revert(0x00, returndatasize)\n    tag_134:\n      pop\n      pop\n      pop\n      pop\n      mload(0x40)\n      returndatasize\n      not(0x1f)\n      0x1f\n      dup3\n      add\n      and\n      dup3\n      add\n      dup1\n      0x40\n      mstore\n      pop\n      dup2\n      add\n      swap1\n      tag_135\n      swap2\n      swap1\n      tag_97\n      jump\t// in\n    tag_135:\n        /* \"contracts/LendingPlatformWithCollateral.sol\":931:1019  require(token.transferFrom(msg.sender, address(this), _amount), \"Token transfer failed\") */\n      tag_136\n      jumpi\n      mload(0x40)\n      0x08c379a000000000000000000000000000000000000000000000000000000000\n      dup2\n      mstore\n      0x04\n      add\n      tag_137\n      swap1\n      tag_100\n      jump\t// in\n    tag_137:\n      mload(0x40)\n      dup1\n      swap2\n      sub\n      swap1\n      revert\n    tag_136:\n        /* \"contracts/LendingPlatformWithCollateral.sol\":1060:1067  _amount */\n      dup1\n        /* \"contracts/LendingPlatformWithCollateral.sol\":1030:1044  lendingBalance */\n      0x03\n        /* \"contracts/LendingPlatformWithCollateral.sol\":1030:1056  lendingBalance[msg.sender] */\n      0x00\n        /* \"contracts/LendingPlatformWithCollateral.sol\":1045:1055  msg.sender */\n      caller\n        /* \"contracts/LendingPlatformWithCollateral.sol\":1030:1056  lendingBalance[msg.sender] */\n      0xffffffffffffffffffffffffffffffffffffffff\n      and\n      0xffffffffffffffffffffffffffffffffffffffff\n      and\n      dup2\n      mstore\n      0x20\n      add\n      swap1\n      dup2\n      mstore\n      0x20\n      add\n      0x00\n      keccak256\n      0x00\n        /* \"contracts/LendingPlatformWithCollateral.sol\":1030:1067  lendingBalance[msg.sender] += _amount */\n      dup3\n      dup3\n      sload\n      tag_138\n      swap2\n      swap1\n      tag_21\n      jump\t// in\n    tag_138:\n      swap3\n      pop\n      pop\n      dup2\n      swap1\n      sstore\n      pop\n        /* \"@openzeppelin/contracts/security/ReentrancyGuard.sol\":2303:2323  _nonReentrantAfter() */\n      tag_139\n        /* \"@openzeppelin/contracts/security/ReentrancyGuard.sol\":2303:2321  _nonReentrantAfter */\n      tag_104\n        /* \"@openzeppelin/contracts/security/ReentrancyGuard.sol\":2303:2323  _nonReentrantAfter() */\n      jump\t// in\n    tag_139:\n        /* \"contracts/LendingPlatformWithCollateral.sol\":800:1075  function lend(uint256 _amount) external nonReentrant {... */\n      pop\n      jump\t// out\n        /* \"contracts/LendingPlatformWithCollateral.sol\":545:581  uint256 public collateralRatio = 150 */\n    tag_54:\n      sload(0x07)\n      dup2\n      jump\t// out\n        /* \"contracts/LendingPlatformWithCollateral.sol\":369:420  mapping(address => uint256) public borrowingBalance */\n    tag_59:\n      mstore(0x20, 0x04)\n      dup1\n      0x00\n      mstore\n      keccak256(0x00, 0x40)\n      0x00\n      swap2\n      pop\n      swap1\n      pop\n      sload\n      dup2\n      jump\t// out\n        /* \"contracts/LendingPlatformWithCollateral.sol\":1341:1832  function borrow(uint256 _amount) external nonReentrant {... */\n    tag_64:\n        /* \"@openzeppelin/contracts/security/ReentrancyGuard.sol\":2261:2282  _nonReentrantBefore() */\n      tag_141\n        /* \"@openzeppelin/contracts/security/ReentrancyGuard.sol\":2261:2280  _nonReentrantBefore */\n      tag_83\n        /* \"@openzeppelin/contracts/security/ReentrancyGuard.sol\":2261:2282  _nonReentrantBefore() */\n      jump\t// in\n    tag_141:\n        /* \"contracts/LendingPlatformWithCollateral.sol\":1425:1426  0 */\n      0x00\n        /* \"contracts/LendingPlatformWithCollateral.sol\":1415:1422  _amount */\n      dup2\n        /* \"contracts/LendingPlatformWithCollateral.sol\":1415:1426  _amount > 0 */\n      gt\n        /* \"contracts/LendingPlatformWithCollateral.sol\":1407:1463  require(_amount > 0, \"Amount must be greater than zero\") */\n      tag_143\n      jumpi\n      mload(0x40)\n      0x08c379a000000000000000000000000000000000000000000000000000000000\n      dup2\n      mstore\n      0x04\n      add\n      tag_144\n      swap1\n      tag_131\n      jump\t// in\n    tag_144:\n      mload(0x40)\n      dup1\n      swap2\n      sub\n      swap1\n      revert\n    tag_143:\n        /* \"contracts/LendingPlatformWithCollateral.sol\":1474:1500  uint256 requiredCollateral */\n      0x00\n        /* \"contracts/LendingPlatformWithCollateral.sol\":1533:1536  100 */\n      0x64\n        /* \"contracts/LendingPlatformWithCollateral.sol\":1514:1529  collateralRatio */\n      sload(0x07)\n        /* \"contracts/LendingPlatformWithCollateral.sol\":1504:1511  _amount */\n      dup4\n        /* \"contracts/LendingPlatformWithCollateral.sol\":1504:1529  _amount * collateralRatio */\n      tag_145\n      swap2\n      swap1\n      tag_146\n      jump\t// in\n    tag_145:\n        /* \"contracts/LendingPlatformWithCollateral.sol\":1503:1536  (_amount * collateralRatio) / 100 */\n      tag_147\n      swap2\n      swap1\n      tag_148\n      jump\t// in\n    tag_147:\n        /* \"contracts/LendingPlatformWithCollateral.sol\":1474:1536  uint256 requiredCollateral = (_amount * collateralRatio) / 100 */\n      swap1\n      pop\n        /* \"contracts/LendingPlatformWithCollateral.sol\":1588:1606  requiredCollateral */\n      dup1\n        /* \"contracts/LendingPlatformWithCollateral.sol\":1555:1572  collateralBalance */\n      0x06\n        /* \"contracts/LendingPlatformWithCollateral.sol\":1555:1584  collateralBalance[msg.sender] */\n      0x00\n        /* \"contracts/LendingPlatformWithCollateral.sol\":1573:1583  msg.sender */\n      caller\n        /* \"contracts/LendingPlatformWithCollateral.sol\":1555:1584  collateralBalance[msg.sender] */\n      0xffffffffffffffffffffffffffffffffffffffff\n      and\n      0xffffffffffffffffffffffffffffffffffffffff\n      and\n      dup2\n      mstore\n      0x20\n      add\n      swap1\n      dup2\n      mstore\n      0x20\n      add\n      0x00\n      keccak256\n      sload\n        /* \"contracts/LendingPlatformWithCollateral.sol\":1555:1606  collateralBalance[msg.sender] >= requiredCollateral */\n      lt\n      iszero\n        /* \"contracts/LendingPlatformWithCollateral.sol\":1547:1634  require(collateralBalance[msg.sender] >= requiredCollateral, \"Insufficient collateral\") */\n      tag_149\n      jumpi\n      mload(0x40)\n      0x08c379a000000000000000000000000000000000000000000000000000000000\n      dup2\n      mstore\n      0x04\n      add\n      tag_150\n      swap1\n      tag_151\n      jump\t// in\n    tag_150:\n      mload(0x40)\n      dup1\n      swap2\n      sub\n      swap1\n      revert\n    tag_149:\n        /* \"contracts/LendingPlatformWithCollateral.sol\":1679:1686  _amount */\n      dup2\n        /* \"contracts/LendingPlatformWithCollateral.sol\":1647:1663  borrowingBalance */\n      0x04\n        /* \"contracts/LendingPlatformWithCollateral.sol\":1647:1675  borrowingBalance[msg.sender] */\n      0x00\n        /* \"contracts/LendingPlatformWithCollateral.sol\":1664:1674  msg.sender */\n      caller\n        /* \"contracts/LendingPlatformWithCollateral.sol\":1647:1675  borrowingBalance[msg.sender] */\n      0xffffffffffffffffffffffffffffffffffffffff\n      and\n      0xffffffffffffffffffffffffffffffffffffffff\n      and\n      dup2\n      mstore\n      0x20\n      add\n      swap1\n      dup2\n      mstore\n      0x20\n      add\n      0x00\n      keccak256\n      0x00\n        /* \"contracts/LendingPlatformWithCollateral.sol\":1647:1686  borrowingBalance[msg.sender] += _amount */\n      dup3\n      dup3\n      sload\n      tag_152\n      swap2\n      swap1\n      tag_21\n      jump\t// in\n    tag_152:\n      swap3\n      pop\n      pop\n      dup2\n      swap1\n      sstore\n      pop\n        /* \"contracts/LendingPlatformWithCollateral.sol\":1727:1742  block.timestamp */\n      timestamp\n        /* \"contracts/LendingPlatformWithCollateral.sol\":1697:1712  borrowStartTime */\n      0x05\n        /* \"contracts/LendingPlatformWithCollateral.sol\":1697:1724  borrowStartTime[msg.sender] */\n      0x00\n        /* \"contracts/LendingPlatformWithCollateral.sol\":1713:1723  msg.sender */\n      caller\n        /* \"contracts/LendingPlatformWithCollateral.sol\":1697:1724  borrowStartTime[msg.sender] */\n      0xffffffffffffffffffffffffffffffffffffffff\n      and\n      0xffffffffffffffffffffffffffffffffffffffff\n      and\n      dup2\n      mstore\n      0x20\n      add\n      swap1\n      dup2\n      mstore\n      0x20\n      add\n      0x00\n      keccak256\n        /* \"contracts/LendingPlatformWithCollateral.sol\":1697:1742  borrowStartTime[msg.sender] = block.timestamp */\n      dup2\n      swap1\n      sstore\n      pop\n        /* \"contracts/LendingPlatformWithCollateral.sol\":1763:1768  token */\n      0x01\n      0x00\n      swap1\n      sload\n      swap1\n      0x0100\n      exp\n      swap1\n      div\n      0xffffffffffffffffffffffffffffffffffffffff\n      and\n        /* \"contracts/LendingPlatformWithCollateral.sol\":1763:1777  token.transfer */\n      0xffffffffffffffffffffffffffffffffffffffff\n      and\n      0xa9059cbb\n        /* \"contracts/LendingPlatformWithCollateral.sol\":1778:1788  msg.sender */\n      caller\n        /* \"contracts/LendingPlatformWithCollateral.sol\":1790:1797  _amount */\n      dup5\n        /* \"contracts/LendingPlatformWithCollateral.sol\":1763:1798  token.transfer(msg.sender, _amount) */\n      mload(0x40)\n      dup4\n      0xffffffff\n      and\n      0xe0\n      shl\n      dup2\n      mstore\n      0x04\n      add\n      tag_153\n      swap3\n      swap2\n      swap1\n      tag_154\n      jump\t// in\n    tag_153:\n      0x20\n      mload(0x40)\n      dup1\n      dup4\n      sub\n      dup2\n      0x00\n      dup8\n      gas\n      call\n      iszero\n      dup1\n      iszero\n      tag_156\n      jumpi\n      returndatacopy(0x00, 0x00, returndatasize)\n      revert(0x00, returndatasize)\n    tag_156:\n      pop\n      pop\n      pop\n      pop\n      mload(0x40)\n      returndatasize\n      not(0x1f)\n      0x1f\n      dup3\n      add\n      and\n      dup3\n      add\n      dup1\n      0x40\n      mstore\n      pop\n      dup2\n      add\n      swap1\n      tag_157\n      swap2\n      swap1\n      tag_97\n      jump\t// in\n    tag_157:\n        /* \"contracts/LendingPlatformWithCollateral.sol\":1755:1824  require(token.transfer(msg.sender, _amount), \"Token transfer failed\") */\n      tag_158\n      jumpi\n      mload(0x40)\n      0x08c379a000000000000000000000000000000000000000000000000000000000\n      dup2\n      mstore\n      0x04\n      add\n      tag_159\n      swap1\n      tag_100\n      jump\t// in\n    tag_159:\n      mload(0x40)\n      dup1\n      swap2\n      sub\n      swap1\n      revert\n    tag_158:\n        /* \"contracts/LendingPlatformWithCollateral.sol\":1396:1832  {... */\n      pop\n        /* \"@openzeppelin/contracts/security/ReentrancyGuard.sol\":2303:2323  _nonReentrantAfter() */\n      tag_160\n        /* \"@openzeppelin/contracts/security/ReentrancyGuard.sol\":2303:2321  _nonReentrantAfter */\n      tag_104\n        /* \"@openzeppelin/contracts/security/ReentrancyGuard.sol\":2303:2323  _nonReentrantAfter() */\n      jump\t// in\n    tag_160:\n        /* \"contracts/LendingPlatformWithCollateral.sol\":1341:1832  function borrow(uint256 _amount) external nonReentrant {... */\n      pop\n      jump\t// out\n        /* \"contracts/LendingPlatformWithCollateral.sol\":427:477  mapping(address => uint256) public borrowStartTime */\n    tag_68:\n      mstore(0x20, 0x05)\n      dup1\n      0x00\n      mstore\n      keccak256(0x00, 0x40)\n      0x00\n      swap2\n      pop\n      swap1\n      pop\n      sload\n      dup2\n      jump\t// out\n        /* \"contracts/LendingPlatformWithCollateral.sol\":3134:3308  function calculateInterest(uint256 _amount, uint256 _duration) public view returns (uint256) {... */\n    tag_74:\n        /* \"contracts/LendingPlatformWithCollateral.sol\":3218:3225  uint256 */\n      0x00\n        /* \"contracts/LendingPlatformWithCollateral.sol\":3285:3299  365 days * 100 */\n      0xbbf81e00\n        /* \"contracts/LendingPlatformWithCollateral.sol\":3271:3280  _duration */\n      dup3\n        /* \"contracts/LendingPlatformWithCollateral.sol\":3256:3268  interestRate */\n      sload(0x02)\n        /* \"contracts/LendingPlatformWithCollateral.sol\":3246:3253  _amount */\n      dup6\n        /* \"contracts/LendingPlatformWithCollateral.sol\":3246:3268  _amount * interestRate */\n      tag_162\n      swap2\n      swap1\n      tag_146\n      jump\t// in\n    tag_162:\n        /* \"contracts/LendingPlatformWithCollateral.sol\":3246:3280  _amount * interestRate * _duration */\n      tag_163\n      swap2\n      swap1\n      tag_146\n      jump\t// in\n    tag_163:\n        /* \"contracts/LendingPlatformWithCollateral.sol\":3245:3300  (_amount * interestRate * _duration) / (365 days * 100) */\n      tag_164\n      swap2\n      swap1\n      tag_148\n      jump\t// in\n    tag_164:\n        /* \"contracts/LendingPlatformWithCollateral.sol\":3238:3300  return (_amount * interestRate * _duration) / (365 days * 100) */\n      swap1\n      pop\n        /* \"contracts/LendingPlatformWithCollateral.sol\":3134:3308  function calculateInterest(uint256 _amount, uint256 _duration) public view returns (uint256) {... */\n      swap3\n      swap2\n      pop\n      pop\n      jump\t// out\n        /* \"contracts/LendingPlatformWithCollateral.sol\":251:270  IERC20 public token */\n    tag_78:\n      0x01\n      0x00\n      swap1\n      sload\n      swap1\n      0x0100\n      exp\n      swap1\n      div\n      0xffffffffffffffffffffffffffffffffffffffff\n      and\n      dup2\n      jump\t// out\n        /* \"@openzeppelin/contracts/security/ReentrancyGuard.sol\":2336:2623  function _nonReentrantBefore() private {... */\n    tag_83:\n        /* \"@openzeppelin/contracts/security/ReentrancyGuard.sol\":1759:1760  2 */\n      0x02\n        /* \"@openzeppelin/contracts/security/ReentrancyGuard.sol\":2468:2475  _status */\n      sload(0x00)\n        /* \"@openzeppelin/contracts/security/ReentrancyGuard.sol\":2468:2487  _status != _ENTERED */\n      sub\n        /* \"@openzeppelin/contracts/security/ReentrancyGuard.sol\":2460:2523  require(_status != _ENTERED, \"ReentrancyGuard: reentrant call\") */\n      tag_166\n      jumpi\n      mload(0x40)\n      0x08c379a000000000000000000000000000000000000000000000000000000000\n      dup2\n      mstore\n      0x04\n      add\n      tag_167\n      swap1\n      tag_168\n      jump\t// in\n    tag_167:\n      mload(0x40)\n      dup1\n      swap2\n      sub\n      swap1\n      revert\n    tag_166:\n        /* \"@openzeppelin/contracts/security/ReentrancyGuard.sol\":1759:1760  2 */\n      0x02\n        /* \"@openzeppelin/contracts/security/ReentrancyGuard.sol\":2598:2605  _status */\n      0x00\n        /* \"@openzeppelin/contracts/security/ReentrancyGuard.sol\":2598:2616  _status = _ENTERED */\n      dup2\n      swap1\n      sstore\n      pop\n        /* \"@openzeppelin/contracts/security/ReentrancyGuard.sol\":2336:2623  function _nonReentrantBefore() private {... */\n      jump\t// out\n        /* \"@openzeppelin/contracts/security/ReentrancyGuard.sol\":2629:2838  function _nonReentrantAfter() private {... */\n    tag_104:\n        /* \"@openzeppelin/contracts/security/ReentrancyGuard.sol\":1716:1717  1 */\n      0x01\n        /* \"@openzeppelin/contracts/security/ReentrancyGuard.sol\":2809:2816  _status */\n      0x00\n        /* \"@openzeppelin/contracts/security/ReentrancyGuard.sol\":2809:2831  _status = _NOT_ENTERED */\n      dup2\n      swap1\n      sstore\n      pop\n        /* \"@openzeppelin/contracts/security/ReentrancyGuard.sol\":2629:2838  function _nonReentrantAfter() private {... */\n      jump\t// out\n        /* \"#utility.yul\":7:84   */\n    tag_170:\n        /* \"#utility.yul\":44:51   */\n      0x00\n        /* \"#utility.yul\":73:78   */\n      dup2\n        /* \"#utility.yul\":62:78   */\n      swap1\n      pop\n        /* \"#utility.yul\":7:84   */\n      swap2\n      swap1\n      pop\n      jump\t// out\n        /* \"#utility.yul\":90:270   */\n    tag_171:\n        /* \"#utility.yul\":138:215   */\n      0x4e487b7100000000000000000000000000000000000000000000000000000000\n        /* \"#utility.yul\":135:136   */\n      0x00\n        /* \"#utility.yul\":128:216   */\n      mstore\n        /* \"#utility.yul\":235:239   */\n      0x11\n        /* \"#utility.yul\":232:233   */\n      0x04\n        /* \"#utility.yul\":225:240   */\n      mstore\n        /* \"#utility.yul\":259:263   */\n      0x24\n        /* \"#utility.yul\":256:257   */\n      0x00\n        /* \"#utility.yul\":249:264   */\n      revert\n        /* \"#utility.yul\":276:467   */\n    tag_21:\n        /* \"#utility.yul\":316:319   */\n      0x00\n        /* \"#utility.yul\":335:355   */\n      tag_213\n        /* \"#utility.yul\":353:354   */\n      dup3\n        /* \"#utility.yul\":335:355   */\n      tag_170\n      jump\t// in\n    tag_213:\n        /* \"#utility.yul\":330:355   */\n      swap2\n      pop\n        /* \"#utility.yul\":369:389   */\n      tag_214\n        /* \"#utility.yul\":387:388   */\n      dup4\n        /* \"#utility.yul\":369:389   */\n      tag_170\n      jump\t// in\n    tag_214:\n        /* \"#utility.yul\":364:389   */\n      swap3\n      pop\n        /* \"#utility.yul\":412:413   */\n      dup3\n        /* \"#utility.yul\":409:410   */\n      dup3\n        /* \"#utility.yul\":405:414   */\n      add\n        /* \"#utility.yul\":398:414   */\n      swap1\n      pop\n        /* \"#utility.yul\":433:436   */\n      dup1\n        /* \"#utility.yul\":430:431   */\n      dup3\n        /* \"#utility.yul\":427:437   */\n      gt\n        /* \"#utility.yul\":424:460   */\n      iszero\n      tag_215\n      jumpi\n        /* \"#utility.yul\":440:458   */\n      tag_216\n      tag_171\n      jump\t// in\n    tag_216:\n        /* \"#utility.yul\":424:460   */\n    tag_215:\n        /* \"#utility.yul\":276:467   */\n      swap3\n      swap2\n      pop\n      pop\n      jump\t// out\n        /* \"#utility.yul\":554:671   */\n    tag_173:\n        /* \"#utility.yul\":663:664   */\n      0x00\n        /* \"#utility.yul\":660:661   */\n      0x00\n        /* \"#utility.yul\":653:665   */\n      revert\n        /* \"#utility.yul\":800:922   */\n    tag_175:\n        /* \"#utility.yul\":873:897   */\n      tag_221\n        /* \"#utility.yul\":891:896   */\n      dup2\n        /* \"#utility.yul\":873:897   */\n      tag_170\n      jump\t// in\n    tag_221:\n        /* \"#utility.yul\":866:871   */\n      dup2\n        /* \"#utility.yul\":863:898   */\n      eq\n        /* \"#utility.yul\":853:916   */\n      tag_222\n      jumpi\n        /* \"#utility.yul\":912:913   */\n      0x00\n        /* \"#utility.yul\":909:910   */\n      0x00\n        /* \"#utility.yul\":902:914   */\n      revert\n        /* \"#utility.yul\":853:916   */\n    tag_222:\n        /* \"#utility.yul\":800:922   */\n      pop\n      jump\t// out\n        /* \"#utility.yul\":928:1067   */\n    tag_176:\n        /* \"#utility.yul\":974:979   */\n      0x00\n        /* \"#utility.yul\":1012:1018   */\n      dup2\n        /* \"#utility.yul\":999:1019   */\n      calldataload\n        /* \"#utility.yul\":990:1019   */\n      swap1\n      pop\n        /* \"#utility.yul\":1028:1061   */\n      tag_224\n        /* \"#utility.yul\":1055:1060   */\n      dup2\n        /* \"#utility.yul\":1028:1061   */\n      tag_175\n      jump\t// in\n    tag_224:\n        /* \"#utility.yul\":928:1067   */\n      swap3\n      swap2\n      pop\n      pop\n      jump\t// out\n        /* \"#utility.yul\":1073:1402   */\n    tag_28:\n        /* \"#utility.yul\":1132:1138   */\n      0x00\n        /* \"#utility.yul\":1181:1183   */\n      0x20\n        /* \"#utility.yul\":1169:1178   */\n      dup3\n        /* \"#utility.yul\":1160:1167   */\n      dup5\n        /* \"#utility.yul\":1156:1179   */\n      sub\n        /* \"#utility.yul\":1152:1184   */\n      slt\n        /* \"#utility.yul\":1149:1268   */\n      iszero\n      tag_226\n      jumpi\n        /* \"#utility.yul\":1187:1266   */\n      tag_227\n      tag_173\n      jump\t// in\n    tag_227:\n        /* \"#utility.yul\":1149:1268   */\n    tag_226:\n        /* \"#utility.yul\":1307:1308   */\n      0x00\n        /* \"#utility.yul\":1332:1385   */\n      tag_228\n        /* \"#utility.yul\":1377:1384   */\n      dup5\n        /* \"#utility.yul\":1368:1374   */\n      dup3\n        /* \"#utility.yul\":1357:1366   */\n      dup6\n        /* \"#utility.yul\":1353:1375   */\n      add\n        /* \"#utility.yul\":1332:1385   */\n      tag_176\n      jump\t// in\n    tag_228:\n        /* \"#utility.yul\":1322:1385   */\n      swap2\n      pop\n        /* \"#utility.yul\":1278:1395   */\n      pop\n        /* \"#utility.yul\":1073:1402   */\n      swap3\n      swap2\n      pop\n      pop\n      jump\t// out\n        /* \"#utility.yul\":1408:1526   */\n    tag_177:\n        /* \"#utility.yul\":1495:1519   */\n      tag_230\n        /* \"#utility.yul\":1513:1518   */\n      dup2\n        /* \"#utility.yul\":1495:1519   */\n      tag_170\n      jump\t// in\n    tag_230:\n        /* \"#utility.yul\":1490:1493   */\n      dup3\n        /* \"#utility.yul\":1483:1520   */\n      mstore\n        /* \"#utility.yul\":1408:1526   */\n      pop\n      pop\n      jump\t// out\n        /* \"#utility.yul\":1532:1754   */\n    tag_36:\n        /* \"#utility.yul\":1625:1629   */\n      0x00\n        /* \"#utility.yul\":1663:1665   */\n      0x20\n        /* \"#utility.yul\":1652:1661   */\n      dup3\n        /* \"#utility.yul\":1648:1666   */\n      add\n        /* \"#utility.yul\":1640:1666   */\n      swap1\n      pop\n        /* \"#utility.yul\":1676:1747   */\n      tag_232\n        /* \"#utility.yul\":1744:1745   */\n      0x00\n        /* \"#utility.yul\":1733:1742   */\n      dup4\n        /* \"#utility.yul\":1729:1746   */\n      add\n        /* \"#utility.yul\":1720:1726   */\n      dup5\n        /* \"#utility.yul\":1676:1747   */\n      tag_177\n      jump\t// in\n    tag_232:\n        /* \"#utility.yul\":1532:1754   */\n      swap3\n      swap2\n      pop\n      pop\n      jump\t// out\n        /* \"#utility.yul\":1760:1886   */\n    tag_178:\n        /* \"#utility.yul\":1797:1804   */\n      0x00\n        /* \"#utility.yul\":1837:1879   */\n      0xffffffffffffffffffffffffffffffffffffffff\n        /* \"#utility.yul\":1830:1835   */\n      dup3\n        /* \"#utility.yul\":1826:1880   */\n      and\n        /* \"#utility.yul\":1815:1880   */\n      swap1\n      pop\n        /* \"#utility.yul\":1760:1886   */\n      swap2\n      swap1\n      pop\n      jump\t// out\n        /* \"#utility.yul\":1892:1988   */\n    tag_179:\n        /* \"#utility.yul\":1929:1936   */\n      0x00\n        /* \"#utility.yul\":1958:1982   */\n      tag_235\n        /* \"#utility.yul\":1976:1981   */\n      dup3\n        /* \"#utility.yul\":1958:1982   */\n      tag_178\n      jump\t// in\n    tag_235:\n        /* \"#utility.yul\":1947:1982   */\n      swap1\n      pop\n        /* \"#utility.yul\":1892:1988   */\n      swap2\n      swap1\n      pop\n      jump\t// out\n        /* \"#utility.yul\":1994:2116   */\n    tag_180:\n        /* \"#utility.yul\":2067:2091   */\n      tag_237\n        /* \"#utility.yul\":2085:2090   */\n      dup2\n        /* \"#utility.yul\":2067:2091   */\n      tag_179\n      jump\t// in\n    tag_237:\n        /* \"#utility.yul\":2060:2065   */\n      dup2\n        /* \"#utility.yul\":2057:2092   */\n      eq\n        /* \"#utility.yul\":2047:2110   */\n      tag_238\n      jumpi\n        /* \"#utility.yul\":2106:2107   */\n      0x00\n        /* \"#utility.yul\":2103:2104   */\n      0x00\n        /* \"#utility.yul\":2096:2108   */\n      revert\n        /* \"#utility.yul\":2047:2110   */\n    tag_238:\n        /* \"#utility.yul\":1994:2116   */\n      pop\n      jump\t// out\n        /* \"#utility.yul\":2122:2261   */\n    tag_181:\n        /* \"#utility.yul\":2168:2173   */\n      0x00\n        /* \"#utility.yul\":2206:2212   */\n      dup2\n        /* \"#utility.yul\":2193:2213   */\n      calldataload\n        /* \"#utility.yul\":2184:2213   */\n      swap1\n      pop\n        /* \"#utility.yul\":2222:2255   */\n      tag_240\n        /* \"#utility.yul\":2249:2254   */\n      dup2\n        /* \"#utility.yul\":2222:2255   */\n      tag_180\n      jump\t// in\n    tag_240:\n        /* \"#utility.yul\":2122:2261   */\n      swap3\n      swap2\n      pop\n      pop\n      jump\t// out\n        /* \"#utility.yul\":2267:2596   */\n    tag_40:\n        /* \"#utility.yul\":2326:2332   */\n      0x00\n        /* \"#utility.yul\":2375:2377   */\n      0x20\n        /* \"#utility.yul\":2363:2372   */\n      dup3\n        /* \"#utility.yul\":2354:2361   */\n      dup5\n        /* \"#utility.yul\":2350:2373   */\n      sub\n        /* \"#utility.yul\":2346:2378   */\n      slt\n        /* \"#utility.yul\":2343:2462   */\n      iszero\n      tag_242\n      jumpi\n        /* \"#utility.yul\":2381:2460   */\n      tag_243\n      tag_173\n      jump\t// in\n    tag_243:\n        /* \"#utility.yul\":2343:2462   */\n    tag_242:\n        /* \"#utility.yul\":2501:2502   */\n      0x00\n        /* \"#utility.yul\":2526:2579   */\n      tag_244\n        /* \"#utility.yul\":2571:2578   */\n      dup5\n        /* \"#utility.yul\":2562:2568   */\n      dup3\n        /* \"#utility.yul\":2551:2560   */\n      dup6\n        /* \"#utility.yul\":2547:2569   */\n      add\n        /* \"#utility.yul\":2526:2579   */\n      tag_181\n      jump\t// in\n    tag_244:\n        /* \"#utility.yul\":2516:2579   */\n      swap2\n      pop\n        /* \"#utility.yul\":2472:2589   */\n      pop\n        /* \"#utility.yul\":2267:2596   */\n      swap3\n      swap2\n      pop\n      pop\n      jump\t// out\n        /* \"#utility.yul\":2602:3076   */\n    tag_73:\n        /* \"#utility.yul\":2670:2676   */\n      0x00\n        /* \"#utility.yul\":2678:2684   */\n      0x00\n        /* \"#utility.yul\":2727:2729   */\n      0x40\n        /* \"#utility.yul\":2715:2724   */\n      dup4\n        /* \"#utility.yul\":2706:2713   */\n      dup6\n        /* \"#utility.yul\":2702:2725   */\n      sub\n        /* \"#utility.yul\":2698:2730   */\n      slt\n        /* \"#utility.yul\":2695:2814   */\n      iszero\n      tag_246\n      jumpi\n        /* \"#utility.yul\":2733:2812   */\n      tag_247\n      tag_173\n      jump\t// in\n    tag_247:\n        /* \"#utility.yul\":2695:2814   */\n    tag_246:\n        /* \"#utility.yul\":2853:2854   */\n      0x00\n        /* \"#utility.yul\":2878:2931   */\n      tag_248\n        /* \"#utility.yul\":2923:2930   */\n      dup6\n        /* \"#utility.yul\":2914:2920   */\n      dup3\n        /* \"#utility.yul\":2903:2912   */\n      dup7\n        /* \"#utility.yul\":2899:2921   */\n      add\n        /* \"#utility.yul\":2878:2931   */\n      tag_176\n      jump\t// in\n    tag_248:\n        /* \"#utility.yul\":2868:2931   */\n      swap3\n      pop\n        /* \"#utility.yul\":2824:2941   */\n      pop\n        /* \"#utility.yul\":2980:2982   */\n      0x20\n        /* \"#utility.yul\":3006:3059   */\n      tag_249\n        /* \"#utility.yul\":3051:3058   */\n      dup6\n        /* \"#utility.yul\":3042:3048   */\n      dup3\n        /* \"#utility.yul\":3031:3040   */\n      dup7\n        /* \"#utility.yul\":3027:3049   */\n      add\n        /* \"#utility.yul\":3006:3059   */\n      tag_176\n      jump\t// in\n    tag_249:\n        /* \"#utility.yul\":2996:3059   */\n      swap2\n      pop\n        /* \"#utility.yul\":2951:3069   */\n      pop\n        /* \"#utility.yul\":2602:3076   */\n      swap3\n      pop\n      swap3\n      swap1\n      pop\n      jump\t// out\n        /* \"#utility.yul\":3082:3142   */\n    tag_182:\n        /* \"#utility.yul\":3110:3113   */\n      0x00\n        /* \"#utility.yul\":3131:3136   */\n      dup2\n        /* \"#utility.yul\":3124:3136   */\n      swap1\n      pop\n        /* \"#utility.yul\":3082:3142   */\n      swap2\n      swap1\n      pop\n      jump\t// out\n        /* \"#utility.yul\":3148:3290   */\n    tag_183:\n        /* \"#utility.yul\":3198:3207   */\n      0x00\n        /* \"#utility.yul\":3231:3284   */\n      tag_252\n        /* \"#utility.yul\":3249:3283   */\n      tag_253\n        /* \"#utility.yul\":3258:3282   */\n      tag_254\n        /* \"#utility.yul\":3276:3281   */\n      dup5\n        /* \"#utility.yul\":3258:3282   */\n      tag_178\n      jump\t// in\n    tag_254:\n        /* \"#utility.yul\":3249:3283   */\n      tag_182\n      jump\t// in\n    tag_253:\n        /* \"#utility.yul\":3231:3284   */\n      tag_178\n      jump\t// in\n    tag_252:\n        /* \"#utility.yul\":3218:3284   */\n      swap1\n      pop\n        /* \"#utility.yul\":3148:3290   */\n      swap2\n      swap1\n      pop\n      jump\t// out\n        /* \"#utility.yul\":3296:3422   */\n    tag_184:\n        /* \"#utility.yul\":3346:3355   */\n      0x00\n        /* \"#utility.yul\":3379:3416   */\n      tag_256\n        /* \"#utility.yul\":3410:3415   */\n      dup3\n        /* \"#utility.yul\":3379:3416   */\n      tag_183\n      jump\t// in\n    tag_256:\n        /* \"#utility.yul\":3366:3416   */\n      swap1\n      pop\n        /* \"#utility.yul\":3296:3422   */\n      swap2\n      swap1\n      pop\n      jump\t// out\n        /* \"#utility.yul\":3428:3568   */\n    tag_185:\n        /* \"#utility.yul\":3492:3501   */\n      0x00\n        /* \"#utility.yul\":3525:3562   */\n      tag_258\n        /* \"#utility.yul\":3556:3561   */\n      dup3\n        /* \"#utility.yul\":3525:3562   */\n      tag_184\n      jump\t// in\n    tag_258:\n        /* \"#utility.yul\":3512:3562   */\n      swap1\n      pop\n        /* \"#utility.yul\":3428:3568   */\n      swap2\n      swap1\n      pop\n      jump\t// out\n        /* \"#utility.yul\":3574:3733   */\n    tag_186:\n        /* \"#utility.yul\":3675:3726   */\n      tag_260\n        /* \"#utility.yul\":3720:3725   */\n      dup2\n        /* \"#utility.yul\":3675:3726   */\n      tag_185\n      jump\t// in\n    tag_260:\n        /* \"#utility.yul\":3670:3673   */\n      dup3\n        /* \"#utility.yul\":3663:3727   */\n      mstore\n        /* \"#utility.yul\":3574:3733   */\n      pop\n      pop\n      jump\t// out\n        /* \"#utility.yul\":3739:3989   */\n    tag_80:\n        /* \"#utility.yul\":3846:3850   */\n      0x00\n        /* \"#utility.yul\":3884:3886   */\n      0x20\n        /* \"#utility.yul\":3873:3882   */\n      dup3\n        /* \"#utility.yul\":3869:3887   */\n      add\n        /* \"#utility.yul\":3861:3887   */\n      swap1\n      pop\n        /* \"#utility.yul\":3897:3982   */\n      tag_262\n        /* \"#utility.yul\":3979:3980   */\n      0x00\n        /* \"#utility.yul\":3968:3977   */\n      dup4\n        /* \"#utility.yul\":3964:3981   */\n      add\n        /* \"#utility.yul\":3955:3961   */\n      dup5\n        /* \"#utility.yul\":3897:3982   */\n      tag_186\n      jump\t// in\n    tag_262:\n        /* \"#utility.yul\":3739:3989   */\n      swap3\n      swap2\n      pop\n      pop\n      jump\t// out\n        /* \"#utility.yul\":3995:4164   */\n    tag_187:\n        /* \"#utility.yul\":4079:4090   */\n      0x00\n        /* \"#utility.yul\":4113:4119   */\n      dup3\n        /* \"#utility.yul\":4108:4111   */\n      dup3\n        /* \"#utility.yul\":4101:4120   */\n      mstore\n        /* \"#utility.yul\":4153:4157   */\n      0x20\n        /* \"#utility.yul\":4148:4151   */\n      dup3\n        /* \"#utility.yul\":4144:4158   */\n      add\n        /* \"#utility.yul\":4129:4158   */\n      swap1\n      pop\n        /* \"#utility.yul\":3995:4164   */\n      swap3\n      swap2\n      pop\n      pop\n      jump\t// out\n        /* \"#utility.yul\":4170:4339   */\n    tag_188:\n        /* \"#utility.yul\":4310:4331   */\n      0x4e6f206f75747374616e64696e67206c6f616e00000000000000000000000000\n        /* \"#utility.yul\":4306:4307   */\n      0x00\n        /* \"#utility.yul\":4298:4304   */\n      dup3\n        /* \"#utility.yul\":4294:4308   */\n      add\n        /* \"#utility.yul\":4287:4332   */\n      mstore\n        /* \"#utility.yul\":4170:4339   */\n      pop\n      jump\t// out\n        /* \"#utility.yul\":4345:4711   */\n    tag_189:\n        /* \"#utility.yul\":4487:4490   */\n      0x00\n        /* \"#utility.yul\":4508:4575   */\n      tag_266\n        /* \"#utility.yul\":4572:4574   */\n      0x13\n        /* \"#utility.yul\":4567:4570   */\n      dup4\n        /* \"#utility.yul\":4508:4575   */\n      tag_187\n      jump\t// in\n    tag_266:\n        /* \"#utility.yul\":4501:4575   */\n      swap2\n      pop\n        /* \"#utility.yul\":4584:4677   */\n      tag_267\n        /* \"#utility.yul\":4673:4676   */\n      dup3\n        /* \"#utility.yul\":4584:4677   */\n      tag_188\n      jump\t// in\n    tag_267:\n        /* \"#utility.yul\":4702:4704   */\n      0x20\n        /* \"#utility.yul\":4697:4700   */\n      dup3\n        /* \"#utility.yul\":4693:4705   */\n      add\n        /* \"#utility.yul\":4686:4705   */\n      swap1\n      pop\n        /* \"#utility.yul\":4345:4711   */\n      swap2\n      swap1\n      pop\n      jump\t// out\n        /* \"#utility.yul\":4717:5136   */\n    tag_87:\n        /* \"#utility.yul\":4883:4887   */\n      0x00\n        /* \"#utility.yul\":4921:4923   */\n      0x20\n        /* \"#utility.yul\":4910:4919   */\n      dup3\n        /* \"#utility.yul\":4906:4924   */\n      add\n        /* \"#utility.yul\":4898:4924   */\n      swap1\n      pop\n        /* \"#utility.yul\":4970:4979   */\n      dup2\n        /* \"#utility.yul\":4964:4968   */\n      dup2\n        /* \"#utility.yul\":4960:4980   */\n      sub\n        /* \"#utility.yul\":4956:4957   */\n      0x00\n        /* \"#utility.yul\":4945:4954   */\n      dup4\n        /* \"#utility.yul\":4941:4958   */\n      add\n        /* \"#utility.yul\":4934:4981   */\n      mstore\n        /* \"#utility.yul\":4998:5129   */\n      tag_269\n        /* \"#utility.yul\":5124:5128   */\n      dup2\n        /* \"#utility.yul\":4998:5129   */\n      tag_189\n      jump\t// in\n    tag_269:\n        /* \"#utility.yul\":4990:5129   */\n      swap1\n      pop\n        /* \"#utility.yul\":4717:5136   */\n      swap2\n      swap1\n      pop\n      jump\t// out\n        /* \"#utility.yul\":5142:5336   */\n    tag_89:\n        /* \"#utility.yul\":5182:5186   */\n      0x00\n        /* \"#utility.yul\":5202:5222   */\n      tag_271\n        /* \"#utility.yul\":5220:5221   */\n      dup3\n        /* \"#utility.yul\":5202:5222   */\n      tag_170\n      jump\t// in\n    tag_271:\n        /* \"#utility.yul\":5197:5222   */\n      swap2\n      pop\n        /* \"#utility.yul\":5236:5256   */\n      tag_272\n        /* \"#utility.yul\":5254:5255   */\n      dup4\n        /* \"#utility.yul\":5236:5256   */\n      tag_170\n      jump\t// in\n    tag_272:\n        /* \"#utility.yul\":5231:5256   */\n      swap3\n      pop\n        /* \"#utility.yul\":5280:5281   */\n      dup3\n        /* \"#utility.yul\":5277:5278   */\n      dup3\n        /* \"#utility.yul\":5273:5282   */\n      sub\n        /* \"#utility.yul\":5265:5282   */\n      swap1\n      pop\n        /* \"#utility.yul\":5304:5305   */\n      dup2\n        /* \"#utility.yul\":5298:5302   */\n      dup2\n        /* \"#utility.yul\":5295:5306   */\n      gt\n        /* \"#utility.yul\":5292:5329   */\n      iszero\n      tag_273\n      jumpi\n        /* \"#utility.yul\":5309:5327   */\n      tag_274\n      tag_171\n      jump\t// in\n    tag_274:\n        /* \"#utility.yul\":5292:5329   */\n    tag_273:\n        /* \"#utility.yul\":5142:5336   */\n      swap3\n      swap2\n      pop\n      pop\n      jump\t// out\n        /* \"#utility.yul\":5342:5460   */\n    tag_190:\n        /* \"#utility.yul\":5429:5453   */\n      tag_276\n        /* \"#utility.yul\":5447:5452   */\n      dup2\n        /* \"#utility.yul\":5429:5453   */\n      tag_179\n      jump\t// in\n    tag_276:\n        /* \"#utility.yul\":5424:5427   */\n      dup3\n        /* \"#utility.yul\":5417:5454   */\n      mstore\n        /* \"#utility.yul\":5342:5460   */\n      pop\n      pop\n      jump\t// out\n        /* \"#utility.yul\":5466:5908   */\n    tag_93:\n        /* \"#utility.yul\":5615:5619   */\n      0x00\n        /* \"#utility.yul\":5653:5655   */\n      0x60\n        /* \"#utility.yul\":5642:5651   */\n      dup3\n        /* \"#utility.yul\":5638:5656   */\n      add\n        /* \"#utility.yul\":5630:5656   */\n      swap1\n      pop\n        /* \"#utility.yul\":5666:5737   */\n      tag_278\n        /* \"#utility.yul\":5734:5735   */\n      0x00\n        /* \"#utility.yul\":5723:5732   */\n      dup4\n        /* \"#utility.yul\":5719:5736   */\n      add\n        /* \"#utility.yul\":5710:5716   */\n      dup7\n        /* \"#utility.yul\":5666:5737   */\n      tag_190\n      jump\t// in\n    tag_278:\n        /* \"#utility.yul\":5747:5819   */\n      tag_279\n        /* \"#utility.yul\":5815:5817   */\n      0x20\n        /* \"#utility.yul\":5804:5813   */\n      dup4\n        /* \"#utility.yul\":5800:5818   */\n      add\n        /* \"#utility.yul\":5791:5797   */\n      dup6\n        /* \"#utility.yul\":5747:5819   */\n      tag_190\n      jump\t// in\n    tag_279:\n        /* \"#utility.yul\":5829:5901   */\n      tag_280\n        /* \"#utility.yul\":5897:5899   */\n      0x40\n        /* \"#utility.yul\":5886:5895   */\n      dup4\n        /* \"#utility.yul\":5882:5900   */\n      add\n        /* \"#utility.yul\":5873:5879   */\n      dup5\n        /* \"#utility.yul\":5829:5901   */\n      tag_177\n      jump\t// in\n    tag_280:\n        /* \"#utility.yul\":5466:5908   */\n      swap5\n      swap4\n      pop\n      pop\n      pop\n      pop\n      jump\t// out\n        /* \"#utility.yul\":5914:6004   */\n    tag_191:\n        /* \"#utility.yul\":5948:5955   */\n      0x00\n        /* \"#utility.yul\":5991:5996   */\n      dup2\n        /* \"#utility.yul\":5984:5997   */\n      iszero\n        /* \"#utility.yul\":5977:5998   */\n      iszero\n        /* \"#utility.yul\":5966:5998   */\n      swap1\n      pop\n        /* \"#utility.yul\":5914:6004   */\n      swap2\n      swap1\n      pop\n      jump\t// out\n        /* \"#utility.yul\":6010:6126   */\n    tag_192:\n        /* \"#utility.yul\":6080:6101   */\n      tag_283\n        /* \"#utility.yul\":6095:6100   */\n      dup2\n        /* \"#utility.yul\":6080:6101   */\n      tag_191\n      jump\t// in\n    tag_283:\n        /* \"#utility.yul\":6073:6078   */\n      dup2\n        /* \"#utility.yul\":6070:6102   */\n      eq\n        /* \"#utility.yul\":6060:6120   */\n      tag_284\n      jumpi\n        /* \"#utility.yul\":6116:6117   */\n      0x00\n        /* \"#utility.yul\":6113:6114   */\n      0x00\n        /* \"#utility.yul\":6106:6118   */\n      revert\n        /* \"#utility.yul\":6060:6120   */\n    tag_284:\n        /* \"#utility.yul\":6010:6126   */\n      pop\n      jump\t// out\n        /* \"#utility.yul\":6132:6269   */\n    tag_193:\n        /* \"#utility.yul\":6186:6191   */\n      0x00\n        /* \"#utility.yul\":6217:6223   */\n      dup2\n        /* \"#utility.yul\":6211:6224   */\n      mload\n        /* \"#utility.yul\":6202:6224   */\n      swap1\n      pop\n        /* \"#utility.yul\":6233:6263   */\n      tag_286\n        /* \"#utility.yul\":6257:6262   */\n      dup2\n        /* \"#utility.yul\":6233:6263   */\n      tag_192\n      jump\t// in\n    tag_286:\n        /* \"#utility.yul\":6132:6269   */\n      swap3\n      swap2\n      pop\n      pop\n      jump\t// out\n        /* \"#utility.yul\":6275:6620   */\n    tag_97:\n        /* \"#utility.yul\":6342:6348   */\n      0x00\n        /* \"#utility.yul\":6391:6393   */\n      0x20\n        /* \"#utility.yul\":6379:6388   */\n      dup3\n        /* \"#utility.yul\":6370:6377   */\n      dup5\n        /* \"#utility.yul\":6366:6389   */\n      sub\n        /* \"#utility.yul\":6362:6394   */\n      slt\n        /* \"#utility.yul\":6359:6478   */\n      iszero\n      tag_288\n      jumpi\n        /* \"#utility.yul\":6397:6476   */\n      tag_289\n      tag_173\n      jump\t// in\n    tag_289:\n        /* \"#utility.yul\":6359:6478   */\n    tag_288:\n        /* \"#utility.yul\":6517:6518   */\n      0x00\n        /* \"#utility.yul\":6542:6603   */\n      tag_290\n        /* \"#utility.yul\":6595:6602   */\n      dup5\n        /* \"#utility.yul\":6586:6592   */\n      dup3\n        /* \"#utility.yul\":6575:6584   */\n      dup6\n        /* \"#utility.yul\":6571:6593   */\n      add\n        /* \"#utility.yul\":6542:6603   */\n      tag_193\n      jump\t// in\n    tag_290:\n        /* \"#utility.yul\":6532:6603   */\n      swap2\n      pop\n        /* \"#utility.yul\":6488:6613   */\n      pop\n        /* \"#utility.yul\":6275:6620   */\n      swap3\n      swap2\n      pop\n      pop\n      jump\t// out\n        /* \"#utility.yul\":6626:6797   */\n    tag_194:\n        /* \"#utility.yul\":6766:6789   */\n      0x546f6b656e207472616e73666572206661696c65640000000000000000000000\n        /* \"#utility.yul\":6762:6763   */\n      0x00\n        /* \"#utility.yul\":6754:6760   */\n      dup3\n        /* \"#utility.yul\":6750:6764   */\n      add\n        /* \"#utility.yul\":6743:6790   */\n      mstore\n        /* \"#utility.yul\":6626:6797   */\n      pop\n      jump\t// out\n        /* \"#utility.yul\":6803:7169   */\n    tag_195:\n        /* \"#utility.yul\":6945:6948   */\n      0x00\n        /* \"#utility.yul\":6966:7033   */\n      tag_293\n        /* \"#utility.yul\":7030:7032   */\n      0x15\n        /* \"#utility.yul\":7025:7028   */\n      dup4\n        /* \"#utility.yul\":6966:7033   */\n      tag_187\n      jump\t// in\n    tag_293:\n        /* \"#utility.yul\":6959:7033   */\n      swap2\n      pop\n        /* \"#utility.yul\":7042:7135   */\n      tag_294\n        /* \"#utility.yul\":7131:7134   */\n      dup3\n        /* \"#utility.yul\":7042:7135   */\n      tag_194\n      jump\t// in\n    tag_294:\n        /* \"#utility.yul\":7160:7162   */\n      0x20\n        /* \"#utility.yul\":7155:7158   */\n      dup3\n        /* \"#utility.yul\":7151:7163   */\n      add\n        /* \"#utility.yul\":7144:7163   */\n      swap1\n      pop\n        /* \"#utility.yul\":6803:7169   */\n      swap2\n      swap1\n      pop\n      jump\t// out\n        /* \"#utility.yul\":7175:7594   */\n    tag_100:\n        /* \"#utility.yul\":7341:7345   */\n      0x00\n        /* \"#utility.yul\":7379:7381   */\n      0x20\n        /* \"#utility.yul\":7368:7377   */\n      dup3\n        /* \"#utility.yul\":7364:7382   */\n      add\n        /* \"#utility.yul\":7356:7382   */\n      swap1\n      pop\n        /* \"#utility.yul\":7428:7437   */\n      dup2\n        /* \"#utility.yul\":7422:7426   */\n      dup2\n        /* \"#utility.yul\":7418:7438   */\n      sub\n        /* \"#utility.yul\":7414:7415   */\n      0x00\n        /* \"#utility.yul\":7403:7412   */\n      dup4\n        /* \"#utility.yul\":7399:7416   */\n      add\n        /* \"#utility.yul\":7392:7439   */\n      mstore\n        /* \"#utility.yul\":7456:7587   */\n      tag_296\n        /* \"#utility.yul\":7582:7586   */\n      dup2\n        /* \"#utility.yul\":7456:7587   */\n      tag_195\n      jump\t// in\n    tag_296:\n        /* \"#utility.yul\":7448:7587   */\n      swap1\n      pop\n        /* \"#utility.yul\":7175:7594   */\n      swap2\n      swap1\n      pop\n      jump\t// out\n        /* \"#utility.yul\":7600:7773   */\n    tag_196:\n        /* \"#utility.yul\":7740:7765   */\n      0x4f75747374616e64696e67206c6f616e20657869737473000000000000000000\n        /* \"#utility.yul\":7736:7737   */\n      0x00\n        /* \"#utility.yul\":7728:7734   */\n      dup3\n        /* \"#utility.yul\":7724:7738   */\n      add\n        /* \"#utility.yul\":7717:7766   */\n      mstore\n        /* \"#utility.yul\":7600:7773   */\n      pop\n      jump\t// out\n        /* \"#utility.yul\":7779:8145   */\n    tag_197:\n        /* \"#utility.yul\":7921:7924   */\n      0x00\n        /* \"#utility.yul\":7942:8009   */\n      tag_299\n        /* \"#utility.yul\":8006:8008   */\n      0x17\n        /* \"#utility.yul\":8001:8004   */\n      dup4\n        /* \"#utility.yul\":7942:8009   */\n      tag_187\n      jump\t// in\n    tag_299:\n        /* \"#utility.yul\":7935:8009   */\n      swap2\n      pop\n        /* \"#utility.yul\":8018:8111   */\n      tag_300\n        /* \"#utility.yul\":8107:8110   */\n      dup3\n        /* \"#utility.yul\":8018:8111   */\n      tag_196\n      jump\t// in\n    tag_300:\n        /* \"#utility.yul\":8136:8138   */\n      0x20\n        /* \"#utility.yul\":8131:8134   */\n      dup3\n        /* \"#utility.yul\":8127:8139   */\n      add\n        /* \"#utility.yul\":8120:8139   */\n      swap1\n      pop\n        /* \"#utility.yul\":7779:8145   */\n      swap2\n      swap1\n      pop\n      jump\t// out\n        /* \"#utility.yul\":8151:8570   */\n    tag_110:\n        /* \"#utility.yul\":8317:8321   */\n      0x00\n        /* \"#utility.yul\":8355:8357   */\n      0x20\n        /* \"#utility.yul\":8344:8353   */\n      dup3\n        /* \"#utility.yul\":8340:8358   */\n      add\n        /* \"#utility.yul\":8332:8358   */\n      swap1\n      pop\n        /* \"#utility.yul\":8404:8413   */\n      dup2\n        /* \"#utility.yul\":8398:8402   */\n      dup2\n        /* \"#utility.yul\":8394:8414   */\n      sub\n        /* \"#utility.yul\":8390:8391   */\n      0x00\n        /* \"#utility.yul\":8379:8388   */\n      dup4\n        /* \"#utility.yul\":8375:8392   */\n      add\n        /* \"#utility.yul\":8368:8415   */\n      mstore\n        /* \"#utility.yul\":8432:8563   */\n      tag_302\n        /* \"#utility.yul\":8558:8562   */\n      dup2\n        /* \"#utility.yul\":8432:8563   */\n      tag_197\n      jump\t// in\n    tag_302:\n        /* \"#utility.yul\":8424:8563   */\n      swap1\n      pop\n        /* \"#utility.yul\":8151:8570   */\n      swap2\n      swap1\n      pop\n      jump\t// out\n        /* \"#utility.yul\":8576:8747   */\n    tag_198:\n        /* \"#utility.yul\":8716:8739   */\n      0x4e6f7420656e6f75676820636f6c6c61746572616c0000000000000000000000\n        /* \"#utility.yul\":8712:8713   */\n      0x00\n        /* \"#utility.yul\":8704:8710   */\n      dup3\n        /* \"#utility.yul\":8700:8714   */\n      add\n        /* \"#utility.yul\":8693:8740   */\n      mstore\n        /* \"#utility.yul\":8576:8747   */\n      pop\n      jump\t// out\n        /* \"#utility.yul\":8753:9119   */\n    tag_199:\n        /* \"#utility.yul\":8895:8898   */\n      0x00\n        /* \"#utility.yul\":8916:8983   */\n      tag_305\n        /* \"#utility.yul\":8980:8982   */\n      0x15\n        /* \"#utility.yul\":8975:8978   */\n      dup4\n        /* \"#utility.yul\":8916:8983   */\n      tag_187\n      jump\t// in\n    tag_305:\n        /* \"#utility.yul\":8909:8983   */\n      swap2\n      pop\n        /* \"#utility.yul\":8992:9085   */\n      tag_306\n        /* \"#utility.yul\":9081:9084   */\n      dup3\n        /* \"#utility.yul\":8992:9085   */\n      tag_198\n      jump\t// in\n    tag_306:\n        /* \"#utility.yul\":9110:9112   */\n      0x20\n        /* \"#utility.yul\":9105:9108   */\n      dup3\n        /* \"#utility.yul\":9101:9113   */\n      add\n        /* \"#utility.yul\":9094:9113   */\n      swap1\n      pop\n        /* \"#utility.yul\":8753:9119   */\n      swap2\n      swap1\n      pop\n      jump\t// out\n        /* \"#utility.yul\":9125:9544   */\n    tag_113:\n        /* \"#utility.yul\":9291:9295   */\n      0x00\n        /* \"#utility.yul\":9329:9331   */\n      0x20\n        /* \"#utility.yul\":9318:9327   */\n      dup3\n        /* \"#utility.yul\":9314:9332   */\n      add\n        /* \"#utility.yul\":9306:9332   */\n      swap1\n      pop\n        /* \"#utility.yul\":9378:9387   */\n      dup2\n        /* \"#utility.yul\":9372:9376   */\n      dup2\n        /* \"#utility.yul\":9368:9388   */\n      sub\n        /* \"#utility.yul\":9364:9365   */\n      0x00\n        /* \"#utility.yul\":9353:9362   */\n      dup4\n        /* \"#utility.yul\":9349:9366   */\n      add\n        /* \"#utility.yul\":9342:9389   */\n      mstore\n        /* \"#utility.yul\":9406:9537   */\n      tag_308\n        /* \"#utility.yul\":9532:9536   */\n      dup2\n        /* \"#utility.yul\":9406:9537   */\n      tag_199\n      jump\t// in\n    tag_308:\n        /* \"#utility.yul\":9398:9537   */\n      swap1\n      pop\n        /* \"#utility.yul\":9125:9544   */\n      swap2\n      swap1\n      pop\n      jump\t// out\n        /* \"#utility.yul\":9550:9715   */\n    tag_200:\n        /* \"#utility.yul\":9690:9707   */\n      0x4d7573742073656e642045746865720000000000000000000000000000000000\n        /* \"#utility.yul\":9686:9687   */\n      0x00\n        /* \"#utility.yul\":9678:9684   */\n      dup3\n        /* \"#utility.yul\":9674:9688   */\n      add\n        /* \"#utility.yul\":9667:9708   */\n      mstore\n        /* \"#utility.yul\":9550:9715   */\n      pop\n      jump\t// out\n        /* \"#utility.yul\":9721:10087   */\n    tag_201:\n        /* \"#utility.yul\":9863:9866   */\n      0x00\n        /* \"#utility.yul\":9884:9951   */\n      tag_311\n        /* \"#utility.yul\":9948:9950   */\n      0x0f\n        /* \"#utility.yul\":9943:9946   */\n      dup4\n        /* \"#utility.yul\":9884:9951   */\n      tag_187\n      jump\t// in\n    tag_311:\n        /* \"#utility.yul\":9877:9951   */\n      swap2\n      pop\n        /* \"#utility.yul\":9960:10053   */\n      tag_312\n        /* \"#utility.yul\":10049:10052   */\n      dup3\n        /* \"#utility.yul\":9960:10053   */\n      tag_200\n      jump\t// in\n    tag_312:\n        /* \"#utility.yul\":10078:10080   */\n      0x20\n        /* \"#utility.yul\":10073:10076   */\n      dup3\n        /* \"#utility.yul\":10069:10081   */\n      add\n        /* \"#utility.yul\":10062:10081   */\n      swap1\n      pop\n        /* \"#utility.yul\":9721:10087   */\n      swap2\n      swap1\n      pop\n      jump\t// out\n        /* \"#utility.yul\":10093:10512   */\n    tag_123:\n        /* \"#utility.yul\":10259:10263   */\n      0x00\n        /* \"#utility.yul\":10297:10299   */\n      0x20\n        /* \"#utility.yul\":10286:10295   */\n      dup3\n        /* \"#utility.yul\":10282:10300   */\n      add\n        /* \"#utility.yul\":10274:10300   */\n      swap1\n      pop\n        /* \"#utility.yul\":10346:10355   */\n      dup2\n        /* \"#utility.yul\":10340:10344   */\n      dup2\n        /* \"#utility.yul\":10336:10356   */\n      sub\n        /* \"#utility.yul\":10332:10333   */\n      0x00\n        /* \"#utility.yul\":10321:10330   */\n      dup4\n        /* \"#utility.yul\":10317:10334   */\n      add\n        /* \"#utility.yul\":10310:10357   */\n      mstore\n        /* \"#utility.yul\":10374:10505   */\n      tag_314\n        /* \"#utility.yul\":10500:10504   */\n      dup2\n        /* \"#utility.yul\":10374:10505   */\n      tag_201\n      jump\t// in\n    tag_314:\n        /* \"#utility.yul\":10366:10505   */\n      swap1\n      pop\n        /* \"#utility.yul\":10093:10512   */\n      swap2\n      swap1\n      pop\n      jump\t// out\n        /* \"#utility.yul\":10518:10700   */\n    tag_202:\n        /* \"#utility.yul\":10658:10692   */\n      0x416d6f756e74206d7573742062652067726561746572207468616e207a65726f\n        /* \"#utility.yul\":10654:10655   */\n      0x00\n        /* \"#utility.yul\":10646:10652   */\n      dup3\n        /* \"#utility.yul\":10642:10656   */\n      add\n        /* \"#utility.yul\":10635:10693   */\n      mstore\n        /* \"#utility.yul\":10518:10700   */\n      pop\n      jump\t// out\n        /* \"#utility.yul\":10706:11072   */\n    tag_203:\n        /* \"#utility.yul\":10848:10851   */\n      0x00\n        /* \"#utility.yul\":10869:10936   */\n      tag_317\n        /* \"#utility.yul\":10933:10935   */\n      0x20\n        /* \"#utility.yul\":10928:10931   */\n      dup4\n        /* \"#utility.yul\":10869:10936   */\n      tag_187\n      jump\t// in\n    tag_317:\n        /* \"#utility.yul\":10862:10936   */\n      swap2\n      pop\n        /* \"#utility.yul\":10945:11038   */\n      tag_318\n        /* \"#utility.yul\":11034:11037   */\n      dup3\n        /* \"#utility.yul\":10945:11038   */\n      tag_202\n      jump\t// in\n    tag_318:\n        /* \"#utility.yul\":11063:11065   */\n      0x20\n        /* \"#utility.yul\":11058:11061   */\n      dup3\n        /* \"#utility.yul\":11054:11066   */\n      add\n        /* \"#utility.yul\":11047:11066   */\n      swap1\n      pop\n        /* \"#utility.yul\":10706:11072   */\n      swap2\n      swap1\n      pop\n      jump\t// out\n        /* \"#utility.yul\":11078:11497   */\n    tag_131:\n        /* \"#utility.yul\":11244:11248   */\n      0x00\n        /* \"#utility.yul\":11282:11284   */\n      0x20\n        /* \"#utility.yul\":11271:11280   */\n      dup3\n        /* \"#utility.yul\":11267:11285   */\n      add\n        /* \"#utility.yul\":11259:11285   */\n      swap1\n      pop\n        /* \"#utility.yul\":11331:11340   */\n      dup2\n        /* \"#utility.yul\":11325:11329   */\n      dup2\n        /* \"#utility.yul\":11321:11341   */\n      sub\n        /* \"#utility.yul\":11317:11318   */\n      0x00\n        /* \"#utility.yul\":11306:11315   */\n      dup4\n        /* \"#utility.yul\":11302:11319   */\n      add\n        /* \"#utility.yul\":11295:11342   */\n      mstore\n        /* \"#utility.yul\":11359:11490   */\n      tag_320\n        /* \"#utility.yul\":11485:11489   */\n      dup2\n        /* \"#utility.yul\":11359:11490   */\n      tag_203\n      jump\t// in\n    tag_320:\n        /* \"#utility.yul\":11351:11490   */\n      swap1\n      pop\n        /* \"#utility.yul\":11078:11497   */\n      swap2\n      swap1\n      pop\n      jump\t// out\n        /* \"#utility.yul\":11503:11913   */\n    tag_146:\n        /* \"#utility.yul\":11543:11550   */\n      0x00\n        /* \"#utility.yul\":11566:11586   */\n      tag_322\n        /* \"#utility.yul\":11584:11585   */\n      dup3\n        /* \"#utility.yul\":11566:11586   */\n      tag_170\n      jump\t// in\n    tag_322:\n        /* \"#utility.yul\":11561:11586   */\n      swap2\n      pop\n        /* \"#utility.yul\":11600:11620   */\n      tag_323\n        /* \"#utility.yul\":11618:11619   */\n      dup4\n        /* \"#utility.yul\":11600:11620   */\n      tag_170\n      jump\t// in\n    tag_323:\n        /* \"#utility.yul\":11595:11620   */\n      swap3\n      pop\n        /* \"#utility.yul\":11655:11656   */\n      dup3\n        /* \"#utility.yul\":11652:11653   */\n      dup3\n        /* \"#utility.yul\":11648:11657   */\n      mul\n        /* \"#utility.yul\":11677:11707   */\n      tag_324\n        /* \"#utility.yul\":11695:11706   */\n      dup2\n        /* \"#utility.yul\":11677:11707   */\n      tag_170\n      jump\t// in\n    tag_324:\n        /* \"#utility.yul\":11666:11707   */\n      swap2\n      pop\n        /* \"#utility.yul\":11856:11857   */\n      dup3\n        /* \"#utility.yul\":11847:11854   */\n      dup3\n        /* \"#utility.yul\":11843:11858   */\n      div\n        /* \"#utility.yul\":11840:11841   */\n      dup5\n        /* \"#utility.yul\":11837:11859   */\n      eq\n        /* \"#utility.yul\":11817:11818   */\n      dup4\n        /* \"#utility.yul\":11810:11819   */\n      iszero\n        /* \"#utility.yul\":11790:11873   */\n      or\n        /* \"#utility.yul\":11767:11906   */\n      tag_325\n      jumpi\n        /* \"#utility.yul\":11886:11904   */\n      tag_326\n      tag_171\n      jump\t// in\n    tag_326:\n        /* \"#utility.yul\":11767:11906   */\n    tag_325:\n        /* \"#utility.yul\":11551:11913   */\n      pop\n        /* \"#utility.yul\":11503:11913   */\n      swap3\n      swap2\n      pop\n      pop\n      jump\t// out\n        /* \"#utility.yul\":11919:12099   */\n    tag_204:\n        /* \"#utility.yul\":11967:12044   */\n      0x4e487b7100000000000000000000000000000000000000000000000000000000\n        /* \"#utility.yul\":11964:11965   */\n      0x00\n        /* \"#utility.yul\":11957:12045   */\n      mstore\n        /* \"#utility.yul\":12064:12068   */\n      0x12\n        /* \"#utility.yul\":12061:12062   */\n      0x04\n        /* \"#utility.yul\":12054:12069   */\n      mstore\n        /* \"#utility.yul\":12088:12092   */\n      0x24\n        /* \"#utility.yul\":12085:12086   */\n      0x00\n        /* \"#utility.yul\":12078:12093   */\n      revert\n        /* \"#utility.yul\":12105:12290   */\n    tag_148:\n        /* \"#utility.yul\":12145:12146   */\n      0x00\n        /* \"#utility.yul\":12162:12182   */\n      tag_329\n        /* \"#utility.yul\":12180:12181   */\n      dup3\n        /* \"#utility.yul\":12162:12182   */\n      tag_170\n      jump\t// in\n    tag_329:\n        /* \"#utility.yul\":12157:12182   */\n      swap2\n      pop\n        /* \"#utility.yul\":12196:12216   */\n      tag_330\n        /* \"#utility.yul\":12214:12215   */\n      dup4\n        /* \"#utility.yul\":12196:12216   */\n      tag_170\n      jump\t// in\n    tag_330:\n        /* \"#utility.yul\":12191:12216   */\n      swap3\n      pop\n        /* \"#utility.yul\":12235:12236   */\n      dup3\n        /* \"#utility.yul\":12225:12260   */\n      tag_331\n      jumpi\n        /* \"#utility.yul\":12240:12258   */\n      tag_332\n      tag_204\n      jump\t// in\n    tag_332:\n        /* \"#utility.yul\":12225:12260   */\n    tag_331:\n        /* \"#utility.yul\":12282:12283   */\n      dup3\n        /* \"#utility.yul\":12279:12280   */\n      dup3\n        /* \"#utility.yul\":12275:12284   */\n      div\n        /* \"#utility.yul\":12270:12284   */\n      swap1\n      pop\n        /* \"#utility.yul\":12105:12290   */\n      swap3\n      swap2\n      pop\n      pop\n      jump\t// out\n        /* \"#utility.yul\":12296:12469   */\n    tag_205:\n        /* \"#utility.yul\":12436:12461   */\n      0x496e73756666696369656e7420636f6c6c61746572616c000000000000000000\n        /* \"#utility.yul\":12432:12433   */\n      0x00\n        /* \"#utility.yul\":12424:12430   */\n      dup3\n        /* \"#utility.yul\":12420:12434   */\n      add\n        /* \"#utility.yul\":12413:12462   */\n      mstore\n        /* \"#utility.yul\":12296:12469   */\n      pop\n      jump\t// out\n        /* \"#utility.yul\":12475:12841   */\n    tag_206:\n        /* \"#utility.yul\":12617:12620   */\n      0x00\n        /* \"#utility.yul\":12638:12705   */\n      tag_335\n        /* \"#utility.yul\":12702:12704   */\n      0x17\n        /* \"#utility.yul\":12697:12700   */\n      dup4\n        /* \"#utility.yul\":12638:12705   */\n      tag_187\n      jump\t// in\n    tag_335:\n        /* \"#utility.yul\":12631:12705   */\n      swap2\n      pop\n        /* \"#utility.yul\":12714:12807   */\n      tag_336\n        /* \"#utility.yul\":12803:12806   */\n      dup3\n        /* \"#utility.yul\":12714:12807   */\n      tag_205\n      jump\t// in\n    tag_336:\n        /* \"#utility.yul\":12832:12834   */\n      0x20\n        /* \"#utility.yul\":12827:12830   */\n      dup3\n        /* \"#utility.yul\":12823:12835   */\n      add\n        /* \"#utility.yul\":12816:12835   */\n      swap1\n      pop\n        /* \"#utility.yul\":12475:12841   */\n      swap2\n      swap1\n      pop\n      jump\t// out\n        /* \"#utility.yul\":12847:13266   */\n    tag_151:\n        /* \"#utility.yul\":13013:13017   */\n      0x00\n        /* \"#utility.yul\":13051:13053   */\n      0x20\n        /* \"#utility.yul\":13040:13049   */\n      dup3\n        /* \"#utility.yul\":13036:13054   */\n      add\n        /* \"#utility.yul\":13028:13054   */\n      swap1\n      pop\n        /* \"#utility.yul\":13100:13109   */\n      dup2\n        /* \"#utility.yul\":13094:13098   */\n      dup2\n        /* \"#utility.yul\":13090:13110   */\n      sub\n        /* \"#utility.yul\":13086:13087   */\n      0x00\n        /* \"#utility.yul\":13075:13084   */\n      dup4\n        /* \"#utility.yul\":13071:13088   */\n      add\n        /* \"#utility.yul\":13064:13111   */\n      mstore\n        /* \"#utility.yul\":13128:13259   */\n      tag_338\n        /* \"#utility.yul\":13254:13258   */\n      dup2\n        /* \"#utility.yul\":13128:13259   */\n      tag_206\n      jump\t// in\n    tag_338:\n        /* \"#utility.yul\":13120:13259   */\n      swap1\n      pop\n        /* \"#utility.yul\":12847:13266   */\n      swap2\n      swap1\n      pop\n      jump\t// out\n        /* \"#utility.yul\":13272:13604   */\n    tag_154:\n        /* \"#utility.yul\":13393:13397   */\n      0x00\n        /* \"#utility.yul\":13431:13433   */\n      0x40\n        /* \"#utility.yul\":13420:13429   */\n      dup3\n        /* \"#utility.yul\":13416:13434   */\n      add\n        /* \"#utility.yul\":13408:13434   */\n      swap1\n      pop\n        /* \"#utility.yul\":13444:13515   */\n      tag_340\n        /* \"#utility.yul\":13512:13513   */\n      0x00\n        /* \"#utility.yul\":13501:13510   */\n      dup4\n        /* \"#utility.yul\":13497:13514   */\n      add\n        /* \"#utility.yul\":13488:13494   */\n      dup6\n        /* \"#utility.yul\":13444:13515   */\n      tag_190\n      jump\t// in\n    tag_340:\n        /* \"#utility.yul\":13525:13597   */\n      tag_341\n        /* \"#utility.yul\":13593:13595   */\n      0x20\n        /* \"#utility.yul\":13582:13591   */\n      dup4\n        /* \"#utility.yul\":13578:13596   */\n      add\n        /* \"#utility.yul\":13569:13575   */\n      dup5\n        /* \"#utility.yul\":13525:13597   */\n      tag_177\n      jump\t// in\n    tag_341:\n        /* \"#utility.yul\":13272:13604   */\n      swap4\n      swap3\n      pop\n      pop\n      pop\n      jump\t// out\n        /* \"#utility.yul\":13610:13791   */\n    tag_207:\n        /* \"#utility.yul\":13750:13783   */\n      0x5265656e7472616e637947756172643a207265656e7472616e742063616c6c00\n        /* \"#utility.yul\":13746:13747   */\n      0x00\n        /* \"#utility.yul\":13738:13744   */\n      dup3\n        /* \"#utility.yul\":13734:13748   */\n      add\n        /* \"#utility.yul\":13727:13784   */\n      mstore\n        /* \"#utility.yul\":13610:13791   */\n      pop\n      jump\t// out\n        /* \"#utility.yul\":13797:14163   */\n    tag_208:\n        /* \"#utility.yul\":13939:13942   */\n      0x00\n        /* \"#utility.yul\":13960:14027   */\n      tag_344\n        /* \"#utility.yul\":14024:14026   */\n      0x1f\n        /* \"#utility.yul\":14019:14022   */\n      dup4\n        /* \"#utility.yul\":13960:14027   */\n      tag_187\n      jump\t// in\n    tag_344:\n        /* \"#utility.yul\":13953:14027   */\n      swap2\n      pop\n        /* \"#utility.yul\":14036:14129   */\n      tag_345\n        /* \"#utility.yul\":14125:14128   */\n      dup3\n        /* \"#utility.yul\":14036:14129   */\n      tag_207\n      jump\t// in\n    tag_345:\n        /* \"#utility.yul\":14154:14156   */\n      0x20\n        /* \"#utility.yul\":14149:14152   */\n      dup3\n        /* \"#utility.yul\":14145:14157   */\n      add\n        /* \"#utility.yul\":14138:14157   */\n      swap1\n      pop\n        /* \"#utility.yul\":13797:14163   */\n      swap2\n      swap1\n      pop\n      jump\t// out\n        /* \"#utility.yul\":14169:14588   */\n    tag_168:\n        /* \"#utility.yul\":14335:14339   */\n      0x00\n        /* \"#utility.yul\":14373:14375   */\n      0x20\n        /* \"#utility.yul\":14362:14371   */\n      dup3\n        /* \"#utility.yul\":14358:14376   */\n      add\n        /* \"#utility.yul\":14350:14376   */\n      swap1\n      pop\n        /* \"#utility.yul\":14422:14431   */\n      dup2\n        /* \"#utility.yul\":14416:14420   */\n      dup2\n        /* \"#utility.yul\":14412:14432   */\n      sub\n        /* \"#utility.yul\":14408:14409   */\n      0x00\n        /* \"#utility.yul\":14397:14406   */\n      dup4\n        /* \"#utility.yul\":14393:14410   */\n      add\n        /* \"#utility.yul\":14386:14433   */\n      mstore\n        /* \"#utility.yul\":14450:14581   */\n      tag_347\n        /* \"#utility.yul\":14576:14580   */\n      dup2\n        /* \"#utility.yul\":14450:14581   */\n      tag_208\n      jump\t// in\n    tag_347:\n        /* \"#utility.yul\":14442:14581   */\n      swap1\n      pop\n        /* \"#utility.yul\":14169:14588   */\n      swap2\n      swap1\n      pop\n      jump\t// out\n\n    auxdata: 0xa26469706673582212202ea2f8b1303fa315bdf0290274dd6d97bf5caa9a38237fe6efab5ecfd7182a2664736f6c634300081e0033\n}\n",
				"bytecode": {
					"linkReferences": {},
					"object": "60806040526096600755348015610014575f5ffd5b5060405161168d38038061168d8339818101604052810190610036919061012d565b60015f819055508160015f6101000a81548173ffffffffffffffffffffffffffffffffffffffff021916908373ffffffffffffffffffffffffffffffffffffffff16021790555080600281905550505061016b565b5f5ffd5b5f73ffffffffffffffffffffffffffffffffffffffff82169050919050565b5f6100b88261008f565b9050919050565b5f6100c9826100ae565b9050919050565b6100d9816100bf565b81146100e3575f5ffd5b50565b5f815190506100f4816100d0565b92915050565b5f819050919050565b61010c816100fa565b8114610116575f5ffd5b50565b5f8151905061012781610103565b92915050565b5f5f604083850312156101435761014261008b565b5b5f610150858286016100e6565b925050602061016185828601610119565b9150509250929050565b611515806101785f395ff3fe6080604052600436106100c5575f3560e01c8063a6aa57ce1161007e578063c5ebeaec11610058578063c5ebeaec1461029a578063dad919ec146102c2578063efdd7c07146102fe578063fc0c546a1461033a5761011e565b8063a6aa57ce1461020c578063b4eae1cb14610234578063b750333e1461025e5761011e565b8063402d8883146101225780636112fe2e146101385780636f758140146101605780637c3a00fd1461016a5780637f10883b14610194578063a1bf2840146101d05761011e565b3661011e573460065f3373ffffffffffffffffffffffffffffffffffffffff1673ffffffffffffffffffffffffffffffffffffffff1681526020019081526020015f205f8282546101169190610e08565b925050819055005b5f5ffd5b34801561012d575f5ffd5b50610136610364565b005b348015610143575f5ffd5b5061015e60048036038101906101599190610e69565b61068e565b005b610168610837565b005b348015610175575f5ffd5b5061017e6108de565b60405161018b9190610ea3565b60405180910390f35b34801561019f575f5ffd5b506101ba60048036038101906101b59190610f16565b6108e4565b6040516101c79190610ea3565b60405180910390f35b3480156101db575f5ffd5b506101f660048036038101906101f19190610f16565b6108f9565b6040516102039190610ea3565b60405180910390f35b348015610217575f5ffd5b50610232600480360381019061022d9190610e69565b61090e565b005b34801561023f575f5ffd5b50610248610a93565b6040516102559190610ea3565b60405180910390f35b348015610269575f5ffd5b50610284600480360381019061027f9190610f16565b610a99565b6040516102919190610ea3565b60405180910390f35b3480156102a5575f5ffd5b506102c060048036038101906102bb9190610e69565b610aae565b005b3480156102cd575f5ffd5b506102e860048036038101906102e39190610f16565b610d11565b6040516102f59190610ea3565b60405180910390f35b348015610309575f5ffd5b50610324600480360381019061031f9190610f41565b610d26565b6040516103319190610ea3565b60405180910390f35b348015610345575f5ffd5b5061034e610d57565b60405161035b9190610fda565b60405180910390f35b61036c610d7c565b5f60045f3373ffffffffffffffffffffffffffffffffffffffff1673ffffffffffffffffffffffffffffffffffffffff1681526020019081526020015f205490505f81116103ef576040517f08c379a00000000000000000000000000000000000000000000000000000000081526004016103e69061104d565b60405180910390fd5b5f60055f3373ffffffffffffffffffffffffffffffffffffffff1673ffffffffffffffffffffffffffffffffffffffff1681526020019081526020015f205442610439919061106b565b90505f6104468383610d26565b90505f81846104559190610e08565b905060015f9054906101000a900473ffffffffffffffffffffffffffffffffffffffff1673ffffffffffffffffffffffffffffffffffffffff166323b872dd3330846040518463ffffffff1660e01b81526004016104b5939291906110ad565b6020604051808303815f875af11580156104d1573d5f5f3e3d5ffd5b505050506040513d601f19601f820116820180604052508101906104f59190611117565b610534576040517f08c379a000000000000000000000000000000000000000000000000000000000815260040161052b9061118c565b60405180910390fd5b5f60045f3373ffffffffffffffffffffffffffffffffffffffff1673ffffffffffffffffffffffffffffffffffffffff1681526020019081526020015f20819055505f60055f3373ffffffffffffffffffffffffffffffffffffffff1673ffffffffffffffffffffffffffffffffffffffff1681526020019081526020015f20819055505f60065f3373ffffffffffffffffffffffffffffffffffffffff1673ffffffffffffffffffffffffffffffffffffffff1681526020019081526020015f205490505f60065f3373ffffffffffffffffffffffffffffffffffffffff1673ffffffffffffffffffffffffffffffffffffffff1681526020019081526020015f20819055503373ffffffffffffffffffffffffffffffffffffffff166108fc8290811502906040515f60405180830381858888f1935050505015801561067e573d5f5f3e3d5ffd5b50505050505061068c610dc9565b565b610696610d7c565b5f60045f3373ffffffffffffffffffffffffffffffffffffffff1673ffffffffffffffffffffffffffffffffffffffff1681526020019081526020015f205414610715576040517f08c379a000000000000000000000000000000000000000000000000000000000815260040161070c906111f4565b60405180910390fd5b60065f3373ffffffffffffffffffffffffffffffffffffffff1673ffffffffffffffffffffffffffffffffffffffff1681526020019081526020015f2054811115610795576040517f08c379a000000000000000000000000000000000000000000000000000000000815260040161078c9061125c565b60405180910390fd5b8060065f3373ffffffffffffffffffffffffffffffffffffffff1673ffffffffffffffffffffffffffffffffffffffff1681526020019081526020015f205f8282546107e1919061106b565b925050819055503373ffffffffffffffffffffffffffffffffffffffff166108fc8290811502906040515f60405180830381858888f1935050505015801561082b573d5f5f3e3d5ffd5b50610834610dc9565b50565b61083f610d7c565b5f3411610881576040517f08c379a0000000000000000000000000000000000000000000000000000000008152600401610878906112c4565b60405180910390fd5b3460065f3373ffffffffffffffffffffffffffffffffffffffff1673ffffffffffffffffffffffffffffffffffffffff1681526020019081526020015f205f8282546108cd9190610e08565b925050819055506108dc610dc9565b565b60025481565b6003602052805f5260405f205f915090505481565b6006602052805f5260405f205f915090505481565b610916610d7c565b5f8111610958576040517f08c379a000000000000000000000000000000000000000000000000000000000815260040161094f9061132c565b60405180910390fd5b60015f9054906101000a900473ffffffffffffffffffffffffffffffffffffffff1673ffffffffffffffffffffffffffffffffffffffff166323b872dd3330846040518463ffffffff1660e01b81526004016109b6939291906110ad565b6020604051808303815f875af11580156109d2573d5f5f3e3d5ffd5b505050506040513d601f19601f820116820180604052508101906109f69190611117565b610a35576040517f08c379a0000000000000000000000000000000000000000000000000000000008152600401610a2c9061118c565b60405180910390fd5b8060035f3373ffffffffffffffffffffffffffffffffffffffff1673ffffffffffffffffffffffffffffffffffffffff1681526020019081526020015f205f828254610a819190610e08565b92505081905550610a90610dc9565b50565b60075481565b6004602052805f5260405f205f915090505481565b610ab6610d7c565b5f8111610af8576040517f08c379a0000000000000000000000000000000000000000000000000000000008152600401610aef9061132c565b60405180910390fd5b5f606460075483610b09919061134a565b610b1391906113b8565b90508060065f3373ffffffffffffffffffffffffffffffffffffffff1673ffffffffffffffffffffffffffffffffffffffff1681526020019081526020015f20541015610b95576040517f08c379a0000000000000000000000000000000000000000000000000000000008152600401610b8c90611432565b60405180910390fd5b8160045f3373ffffffffffffffffffffffffffffffffffffffff1673ffffffffffffffffffffffffffffffffffffffff1681526020019081526020015f205f828254610be19190610e08565b925050819055504260055f3373ffffffffffffffffffffffffffffffffffffffff1673ffffffffffffffffffffffffffffffffffffffff1681526020019081526020015f208190555060015f9054906101000a900473ffffffffffffffffffffffffffffffffffffffff1673ffffffffffffffffffffffffffffffffffffffff1663a9059cbb33846040518363ffffffff1660e01b8152600401610c86929190611450565b6020604051808303815f875af1158015610ca2573d5f5f3e3d5ffd5b505050506040513d601f19601f82011682018060405250810190610cc69190611117565b610d05576040517f08c379a0000000000000000000000000000000000000000000000000000000008152600401610cfc9061118c565b60405180910390fd5b50610d0e610dc9565b50565b6005602052805f5260405f205f915090505481565b5f63bbf81e008260025485610d3b919061134a565b610d45919061134a565b610d4f91906113b8565b905092915050565b60015f9054906101000a900473ffffffffffffffffffffffffffffffffffffffff1681565b60025f5403610dc0576040517f08c379a0000000000000000000000000000000000000000000000000000000008152600401610db7906114c1565b60405180910390fd5b60025f81905550565b60015f81905550565b5f819050919050565b7f4e487b71000000000000000000000000000000000000000000000000000000005f52601160045260245ffd5b5f610e1282610dd2565b9150610e1d83610dd2565b9250828201905080821115610e3557610e34610ddb565b5b92915050565b5f5ffd5b610e4881610dd2565b8114610e52575f5ffd5b50565b5f81359050610e6381610e3f565b92915050565b5f60208284031215610e7e57610e7d610e3b565b5b5f610e8b84828501610e55565b91505092915050565b610e9d81610dd2565b82525050565b5f602082019050610eb65f830184610e94565b92915050565b5f73ffffffffffffffffffffffffffffffffffffffff82169050919050565b5f610ee582610ebc565b9050919050565b610ef581610edb565b8114610eff575f5ffd5b50565b5f81359050610f1081610eec565b92915050565b5f60208284031215610f2b57610f2a610e3b565b5b5f610f3884828501610f02565b91505092915050565b5f5f60408385031215610f5757610f56610e3b565b5b5f610f6485828601610e55565b9250506020610f7585828601610e55565b9150509250929050565b5f819050919050565b5f610fa2610f9d610f9884610ebc565b610f7f565b610ebc565b9050919050565b5f610fb382610f88565b9050919050565b5f610fc482610fa9565b9050919050565b610fd481610fba565b82525050565b5f602082019050610fed5f830184610fcb565b92915050565b5f82825260208201905092915050565b7f4e6f206f75747374616e64696e67206c6f616e000000000000000000000000005f82015250565b5f611037601383610ff3565b915061104282611003565b602082019050919050565b5f6020820190508181035f8301526110648161102b565b9050919050565b5f61107582610dd2565b915061108083610dd2565b925082820390508181111561109857611097610ddb565b5b92915050565b6110a781610edb565b82525050565b5f6060820190506110c05f83018661109e565b6110cd602083018561109e565b6110da6040830184610e94565b949350505050565b5f8115159050919050565b6110f6816110e2565b8114611100575f5ffd5b50565b5f81519050611111816110ed565b92915050565b5f6020828403121561112c5761112b610e3b565b5b5f61113984828501611103565b91505092915050565b7f546f6b656e207472616e73666572206661696c656400000000000000000000005f82015250565b5f611176601583610ff3565b915061118182611142565b602082019050919050565b5f6020820190508181035f8301526111a38161116a565b9050919050565b7f4f75747374616e64696e67206c6f616e206578697374730000000000000000005f82015250565b5f6111de601783610ff3565b91506111e9826111aa565b602082019050919050565b5f6020820190508181035f83015261120b816111d2565b9050919050565b7f4e6f7420656e6f75676820636f6c6c61746572616c00000000000000000000005f82015250565b5f611246601583610ff3565b915061125182611212565b602082019050919050565b5f6020820190508181035f8301526112738161123a565b9050919050565b7f4d7573742073656e6420457468657200000000000000000000000000000000005f82015250565b5f6112ae600f83610ff3565b91506112b98261127a565b602082019050919050565b5f6020820190508181035f8301526112db816112a2565b9050919050565b7f416d6f756e74206d7573742062652067726561746572207468616e207a65726f5f82015250565b5f611316602083610ff3565b9150611321826112e2565b602082019050919050565b5f6020820190508181035f8301526113438161130a565b9050919050565b5f61135482610dd2565b915061135f83610dd2565b925082820261136d81610dd2565b9150828204841483151761138457611383610ddb565b5b5092915050565b7f4e487b71000000000000000000000000000000000000000000000000000000005f52601260045260245ffd5b5f6113c282610dd2565b91506113cd83610dd2565b9250826113dd576113dc61138b565b5b828204905092915050565b7f496e73756666696369656e7420636f6c6c61746572616c0000000000000000005f82015250565b5f61141c601783610ff3565b9150611427826113e8565b602082019050919050565b5f6020820190508181035f83015261144981611410565b9050919050565b5f6040820190506114635f83018561109e565b6114706020830184610e94565b9392505050565b7f5265656e7472616e637947756172643a207265656e7472616e742063616c6c005f82015250565b5f6114ab601f83610ff3565b91506114b682611477565b602082019050919050565b5f6020820190508181035f8301526114d88161149f565b905091905056fea26469706673582212202ea2f8b1303fa315bdf0290274dd6d97bf5caa9a38237fe6efab5ecfd7182a2664736f6c634300081e0033",
					"opcodes": "PUSH1 0x80 PUSH1 0x40 MSTORE PUSH1 0x96 PUSH1 0x7 SSTORE CALLVALUE DUP1 ISZERO PUSH2 0x14 JUMPI PUSH0 PUSH0 REVERT JUMPDEST POP PUSH1 0x40 MLOAD PUSH2 0x168D CODESIZE SUB DUP1 PUSH2 0x168D DUP4 CODECOPY DUP2 DUP2 ADD PUSH1 0x40 MSTORE DUP2 ADD SWAP1 PUSH2 0x36 SWAP2 SWAP1 PUSH2 0x12D JUMP JUMPDEST PUSH1 0x1 PUSH0 DUP2 SWAP1 SSTORE POP DUP2 PUSH1 0x1 PUSH0 PUSH2 0x100 EXP DUP2 SLOAD DUP2 PUSH20 0xFFFFFFFFFFFFFFFFFFFFFFFFFFFFFFFFFFFFFFFF MUL NOT AND SWAP1 DUP4 PUSH20 0xFFFFFFFFFFFFFFFFFFFFFFFFFFFFFFFFFFFFFFFF AND MUL OR SWAP1 SSTORE POP DUP1 PUSH1 0x2 DUP2 SWAP1 SSTORE POP POP POP PUSH2 0x16B JUMP JUMPDEST PUSH0 PUSH0 REVERT JUMPDEST PUSH0 PUSH20 0xFFFFFFFFFFFFFFFFFFFFFFFFFFFFFFFFFFFFFFFF DUP3 AND SWAP1 POP SWAP2 SWAP1 POP JUMP JUMPDEST PUSH0 PUSH2 0xB8 DUP3 PUSH2 0x8F JUMP JUMPDEST SWAP1 POP SWAP2 SWAP1 POP JUMP JUMPDEST PUSH0 PUSH2 0xC9 DUP3 PUSH2 0xAE JUMP JUMPDEST SWAP1 POP SWAP2 SWAP1 POP JUMP JUMPDEST PUSH2 0xD9 DUP2 PUSH2 0xBF JUMP JUMPDEST DUP2 EQ PUSH2 0xE3 JUMPI PUSH0 PUSH0 REVERT JUMPDEST POP JUMP JUMPDEST PUSH0 DUP2 MLOAD SWAP1 POP PUSH2 0xF4 DUP2 PUSH2 0xD0 JUMP JUMPDEST SWAP3 SWAP2 POP POP JUMP JUMPDEST PUSH0 DUP2 SWAP1 POP SWAP2 SWAP1 POP JUMP JUMPDEST PUSH2 0x10C DUP2 PUSH2 0xFA JUMP JUMPDEST DUP2 EQ PUSH2 0x116 JUMPI PUSH0 PUSH0 REVERT JUMPDEST POP JUMP JUMPDEST PUSH0 DUP2 MLOAD SWAP1 POP PUSH2 0x127 DUP2 PUSH2 0x103 JUMP JUMPDEST SWAP3 SWAP2 POP POP JUMP JUMPDEST PUSH0 PUSH0 PUSH1 0x40 DUP4 DUP6 SUB SLT ISZERO PUSH2 0x143 JUMPI PUSH2 0x142 PUSH2 0x8B JUMP JUMPDEST JUMPDEST PUSH0 PUSH2 0x150 DUP6 DUP3 DUP7 ADD PUSH2 0xE6 JUMP JUMPDEST SWAP3 POP POP PUSH1 0x20 PUSH2 0x161 DUP6 DUP3 DUP7 ADD PUSH2 0x119 JUMP JUMPDEST SWAP2 POP POP SWAP3 POP SWAP3 SWAP1 POP JUMP JUMPDEST PUSH2 0x1515 DUP1 PUSH2 0x178 PUSH0 CODECOPY PUSH0 RETURN INVALID PUSH1 0x80 PUSH1 0x40 MSTORE PUSH1 0x4 CALLDATASIZE LT PUSH2 0xC5 JUMPI PUSH0 CALLDATALOAD PUSH1 0xE0 SHR DUP1 PUSH4 0xA6AA57CE GT PUSH2 0x7E JUMPI DUP1 PUSH4 0xC5EBEAEC GT PUSH2 0x58 JUMPI DUP1 PUSH4 0xC5EBEAEC EQ PUSH2 0x29A JUMPI DUP1 PUSH4 0xDAD919EC EQ PUSH2 0x2C2 JUMPI DUP1 PUSH4 0xEFDD7C07 EQ PUSH2 0x2FE JUMPI DUP1 PUSH4 0xFC0C546A EQ PUSH2 0x33A JUMPI PUSH2 0x11E JUMP JUMPDEST DUP1 PUSH4 0xA6AA57CE EQ PUSH2 0x20C JUMPI DUP1 PUSH4 0xB4EAE1CB EQ PUSH2 0x234 JUMPI DUP1 PUSH4 0xB750333E EQ PUSH2 0x25E JUMPI PUSH2 0x11E JUMP JUMPDEST DUP1 PUSH4 0x402D8883 EQ PUSH2 0x122 JUMPI DUP1 PUSH4 0x6112FE2E EQ PUSH2 0x138 JUMPI DUP1 PUSH4 0x6F758140 EQ PUSH2 0x160 JUMPI DUP1 PUSH4 0x7C3A00FD EQ PUSH2 0x16A JUMPI DUP1 PUSH4 0x7F10883B EQ PUSH2 0x194 JUMPI DUP1 PUSH4 0xA1BF2840 EQ PUSH2 0x1D0 JUMPI PUSH2 0x11E JUMP JUMPDEST CALLDATASIZE PUSH2 0x11E JUMPI CALLVALUE PUSH1 0x6 PUSH0 CALLER PUSH20 0xFFFFFFFFFFFFFFFFFFFFFFFFFFFFFFFFFFFFFFFF AND PUSH20 0xFFFFFFFFFFFFFFFFFFFFFFFFFFFFFFFFFFFFFFFF AND DUP2 MSTORE PUSH1 0x20 ADD SWAP1 DUP2 MSTORE PUSH1 0x20 ADD PUSH0 KECCAK256 PUSH0 DUP3 DUP3 SLOAD PUSH2 0x116 SWAP2 SWAP1 PUSH2 0xE08 JUMP JUMPDEST SWAP3 POP POP DUP2 SWAP1 SSTORE STOP JUMPDEST PUSH0 PUSH0 REVERT JUMPDEST CALLVALUE DUP1 ISZERO PUSH2 0x12D JUMPI PUSH0 PUSH0 REVERT JUMPDEST POP PUSH2 0x136 PUSH2 0x364 JUMP JUMPDEST STOP JUMPDEST CALLVALUE DUP1 ISZERO PUSH2 0x143 JUMPI PUSH0 PUSH0 REVERT JUMPDEST POP PUSH2 0x15E PUSH1 0x4 DUP1 CALLDATASIZE SUB DUP2 ADD SWAP1 PUSH2 0x159 SWAP2 SWAP1 PUSH2 0xE69 JUMP JUMPDEST PUSH2 0x68E JUMP JUMPDEST STOP JUMPDEST PUSH2 0x168 PUSH2 0x837 JUMP JUMPDEST STOP JUMPDEST CALLVALUE DUP1 ISZERO PUSH2 0x175 JUMPI PUSH0 PUSH0 REVERT JUMPDEST POP PUSH2 0x17E PUSH2 0x8DE JUMP JUMPDEST PUSH1 0x40 MLOAD PUSH2 0x18B SWAP2 SWAP1 PUSH2 0xEA3 JUMP JUMPDEST PUSH1 0x40 MLOAD DUP1 SWAP2 SUB SWAP1 RETURN JUMPDEST CALLVALUE DUP1 ISZERO PUSH2 0x19F JUMPI PUSH0 PUSH0 REVERT JUMPDEST POP PUSH2 0x1BA PUSH1 0x4 DUP1 CALLDATASIZE SUB DUP2 ADD SWAP1 PUSH2 0x1B5 SWAP2 SWAP1 PUSH2 0xF16 JUMP JUMPDEST PUSH2 0x8E4 JUMP JUMPDEST PUSH1 0x40 MLOAD PUSH2 0x1C7 SWAP2 SWAP1 PUSH2 0xEA3 JUMP JUMPDEST PUSH1 0x40 MLOAD DUP1 SWAP2 SUB SWAP1 RETURN JUMPDEST CALLVALUE DUP1 ISZERO PUSH2 0x1DB JUMPI PUSH0 PUSH0 REVERT JUMPDEST POP PUSH2 0x1F6 PUSH1 0x4 DUP1 CALLDATASIZE SUB DUP2 ADD SWAP1 PUSH2 0x1F1 SWAP2 SWAP1 PUSH2 0xF16 JUMP JUMPDEST PUSH2 0x8F9 JUMP JUMPDEST PUSH1 0x40 MLOAD PUSH2 0x203 SWAP2 SWAP1 PUSH2 0xEA3 JUMP JUMPDEST PUSH1 0x40 MLOAD DUP1 SWAP2 SUB SWAP1 RETURN JUMPDEST CALLVALUE DUP1 ISZERO PUSH2 0x217 JUMPI PUSH0 PUSH0 REVERT JUMPDEST POP PUSH2 0x232 PUSH1 0x4 DUP1 CALLDATASIZE SUB DUP2 ADD SWAP1 PUSH2 0x22D SWAP2 SWAP1 PUSH2 0xE69 JUMP JUMPDEST PUSH2 0x90E JUMP JUMPDEST STOP JUMPDEST CALLVALUE DUP1 ISZERO PUSH2 0x23F JUMPI PUSH0 PUSH0 REVERT JUMPDEST POP PUSH2 0x248 PUSH2 0xA93 JUMP JUMPDEST PUSH1 0x40 MLOAD PUSH2 0x255 SWAP2 SWAP1 PUSH2 0xEA3 JUMP JUMPDEST PUSH1 0x40 MLOAD DUP1 SWAP2 SUB SWAP1 RETURN JUMPDEST CALLVALUE DUP1 ISZERO PUSH2 0x269 JUMPI PUSH0 PUSH0 REVERT JUMPDEST POP PUSH2 0x284 PUSH1 0x4 DUP1 CALLDATASIZE SUB DUP2 ADD SWAP1 PUSH2 0x27F SWAP2 SWAP1 PUSH2 0xF16 JUMP JUMPDEST PUSH2 0xA99 JUMP JUMPDEST PUSH1 0x40 MLOAD PUSH2 0x291 SWAP2 SWAP1 PUSH2 0xEA3 JUMP JUMPDEST PUSH1 0x40 MLOAD DUP1 SWAP2 SUB SWAP1 RETURN JUMPDEST CALLVALUE DUP1 ISZERO PUSH2 0x2A5 JUMPI PUSH0 PUSH0 REVERT JUMPDEST POP PUSH2 0x2C0 PUSH1 0x4 DUP1 CALLDATASIZE SUB DUP2 ADD SWAP1 PUSH2 0x2BB SWAP2 SWAP1 PUSH2 0xE69 JUMP JUMPDEST PUSH2 0xAAE JUMP JUMPDEST STOP JUMPDEST CALLVALUE DUP1 ISZERO PUSH2 0x2CD JUMPI PUSH0 PUSH0 REVERT JUMPDEST POP PUSH2 0x2E8 PUSH1 0x4 DUP1 CALLDATASIZE SUB DUP2 ADD SWAP1 PUSH2 0x2E3 SWAP2 SWAP1 PUSH2 0xF16 JUMP JUMPDEST PUSH2 0xD11 JUMP JUMPDEST PUSH1 0x40 MLOAD PUSH2 0x2F5 SWAP2 SWAP1 PUSH2 0xEA3 JUMP JUMPDEST PUSH1 0x40 MLOAD DUP1 SWAP2 SUB SWAP1 RETURN JUMPDEST CALLVALUE DUP1 ISZERO PUSH2 0x309 JUMPI PUSH0 PUSH0 REVERT JUMPDEST POP PUSH2 0x324 PUSH1 0x4 DUP1 CALLDATASIZE SUB DUP2 ADD SWAP1 PUSH2 0x31F SWAP2 SWAP1 PUSH2 0xF41 JUMP JUMPDEST PUSH2 0xD26 JUMP JUMPDEST PUSH1 0x40 MLOAD PUSH2 0x331 SWAP2 SWAP1 PUSH2 0xEA3 JUMP JUMPDEST PUSH1 0x40 MLOAD DUP1 SWAP2 SUB SWAP1 RETURN JUMPDEST CALLVALUE DUP1 ISZERO PUSH2 0x345 JUMPI PUSH0 PUSH0 REVERT JUMPDEST POP PUSH2 0x34E PUSH2 0xD57 JUMP JUMPDEST PUSH1 0x40 MLOAD PUSH2 0x35B SWAP2 SWAP1 PUSH2 0xFDA JUMP JUMPDEST PUSH1 0x40 MLOAD DUP1 SWAP2 SUB SWAP1 RETURN JUMPDEST PUSH2 0x36C PUSH2 0xD7C JUMP JUMPDEST PUSH0 PUSH1 0x4 PUSH0 CALLER PUSH20 0xFFFFFFFFFFFFFFFFFFFFFFFFFFFFFFFFFFFFFFFF AND PUSH20 0xFFFFFFFFFFFFFFFFFFFFFFFFFFFFFFFFFFFFFFFF AND DUP2 MSTORE PUSH1 0x20 ADD SWAP1 DUP2 MSTORE PUSH1 0x20 ADD PUSH0 KECCAK256 SLOAD SWAP1 POP PUSH0 DUP2 GT PUSH2 0x3EF JUMPI PUSH1 0x40 MLOAD PUSH32 0x8C379A000000000000000000000000000000000000000000000000000000000 DUP2 MSTORE PUSH1 0x4 ADD PUSH2 0x3E6 SWAP1 PUSH2 0x104D JUMP JUMPDEST PUSH1 0x40 MLOAD DUP1 SWAP2 SUB SWAP1 REVERT JUMPDEST PUSH0 PUSH1 0x5 PUSH0 CALLER PUSH20 0xFFFFFFFFFFFFFFFFFFFFFFFFFFFFFFFFFFFFFFFF AND PUSH20 0xFFFFFFFFFFFFFFFFFFFFFFFFFFFFFFFFFFFFFFFF AND DUP2 MSTORE PUSH1 0x20 ADD SWAP1 DUP2 MSTORE PUSH1 0x20 ADD PUSH0 KECCAK256 SLOAD TIMESTAMP PUSH2 0x439 SWAP2 SWAP1 PUSH2 0x106B JUMP JUMPDEST SWAP1 POP PUSH0 PUSH2 0x446 DUP4 DUP4 PUSH2 0xD26 JUMP JUMPDEST SWAP1 POP PUSH0 DUP2 DUP5 PUSH2 0x455 SWAP2 SWAP1 PUSH2 0xE08 JUMP JUMPDEST SWAP1 POP PUSH1 0x1 PUSH0 SWAP1 SLOAD SWAP1 PUSH2 0x100 EXP SWAP1 DIV PUSH20 0xFFFFFFFFFFFFFFFFFFFFFFFFFFFFFFFFFFFFFFFF AND PUSH20 0xFFFFFFFFFFFFFFFFFFFFFFFFFFFFFFFFFFFFFFFF AND PUSH4 0x23B872DD CALLER ADDRESS DUP5 PUSH1 0x40 MLOAD DUP5 PUSH4 0xFFFFFFFF AND PUSH1 0xE0 SHL DUP2 MSTORE PUSH1 0x4 ADD PUSH2 0x4B5 SWAP4 SWAP3 SWAP2 SWAP1 PUSH2 0x10AD JUMP JUMPDEST PUSH1 0x20 PUSH1 0x40 MLOAD DUP1 DUP4 SUB DUP2 PUSH0 DUP8 GAS CALL ISZERO DUP1 ISZERO PUSH2 0x4D1 JUMPI RETURNDATASIZE PUSH0 PUSH0 RETURNDATACOPY RETURNDATASIZE PUSH0 REVERT JUMPDEST POP POP POP POP PUSH1 0x40 MLOAD RETURNDATASIZE PUSH1 0x1F NOT PUSH1 0x1F DUP3 ADD AND DUP3 ADD DUP1 PUSH1 0x40 MSTORE POP DUP2 ADD SWAP1 PUSH2 0x4F5 SWAP2 SWAP1 PUSH2 0x1117 JUMP JUMPDEST PUSH2 0x534 JUMPI PUSH1 0x40 MLOAD PUSH32 0x8C379A000000000000000000000000000000000000000000000000000000000 DUP2 MSTORE PUSH1 0x4 ADD PUSH2 0x52B SWAP1 PUSH2 0x118C JUMP JUMPDEST PUSH1 0x40 MLOAD DUP1 SWAP2 SUB SWAP1 REVERT JUMPDEST PUSH0 PUSH1 0x4 PUSH0 CALLER PUSH20 0xFFFFFFFFFFFFFFFFFFFFFFFFFFFFFFFFFFFFFFFF AND PUSH20 0xFFFFFFFFFFFFFFFFFFFFFFFFFFFFFFFFFFFFFFFF AND DUP2 MSTORE PUSH1 0x20 ADD SWAP1 DUP2 MSTORE PUSH1 0x20 ADD PUSH0 KECCAK256 DUP2 SWAP1 SSTORE POP PUSH0 PUSH1 0x5 PUSH0 CALLER PUSH20 0xFFFFFFFFFFFFFFFFFFFFFFFFFFFFFFFFFFFFFFFF AND PUSH20 0xFFFFFFFFFFFFFFFFFFFFFFFFFFFFFFFFFFFFFFFF AND DUP2 MSTORE PUSH1 0x20 ADD SWAP1 DUP2 MSTORE PUSH1 0x20 ADD PUSH0 KECCAK256 DUP2 SWAP1 SSTORE POP PUSH0 PUSH1 0x6 PUSH0 CALLER PUSH20 0xFFFFFFFFFFFFFFFFFFFFFFFFFFFFFFFFFFFFFFFF AND PUSH20 0xFFFFFFFFFFFFFFFFFFFFFFFFFFFFFFFFFFFFFFFF AND DUP2 MSTORE PUSH1 0x20 ADD SWAP1 DUP2 MSTORE PUSH1 0x20 ADD PUSH0 KECCAK256 SLOAD SWAP1 POP PUSH0 PUSH1 0x6 PUSH0 CALLER PUSH20 0xFFFFFFFFFFFFFFFFFFFFFFFFFFFFFFFFFFFFFFFF AND PUSH20 0xFFFFFFFFFFFFFFFFFFFFFFFFFFFFFFFFFFFFFFFF AND DUP2 MSTORE PUSH1 0x20 ADD SWAP1 DUP2 MSTORE PUSH1 0x20 ADD PUSH0 KECCAK256 DUP2 SWAP1 SSTORE POP CALLER PUSH20 0xFFFFFFFFFFFFFFFFFFFFFFFFFFFFFFFFFFFFFFFF AND PUSH2 0x8FC DUP3 SWAP1 DUP2 ISZERO MUL SWAP1 PUSH1 0x40 MLOAD PUSH0 PUSH1 0x40 MLOAD DUP1 DUP4 SUB DUP2 DUP6 DUP9 DUP9 CALL SWAP4 POP POP POP POP ISZERO DUP1 ISZERO PUSH2 0x67E JUMPI RETURNDATASIZE PUSH0 PUSH0 RETURNDATACOPY RETURNDATASIZE PUSH0 REVERT JUMPDEST POP POP POP POP POP POP PUSH2 0x68C PUSH2 0xDC9 JUMP JUMPDEST JUMP JUMPDEST PUSH2 0x696 PUSH2 0xD7C JUMP JUMPDEST PUSH0 PUSH1 0x4 PUSH0 CALLER PUSH20 0xFFFFFFFFFFFFFFFFFFFFFFFFFFFFFFFFFFFFFFFF AND PUSH20 0xFFFFFFFFFFFFFFFFFFFFFFFFFFFFFFFFFFFFFFFF AND DUP2 MSTORE PUSH1 0x20 ADD SWAP1 DUP2 MSTORE PUSH1 0x20 ADD PUSH0 KECCAK256 SLOAD EQ PUSH2 0x715 JUMPI PUSH1 0x40 MLOAD PUSH32 0x8C379A000000000000000000000000000000000000000000000000000000000 DUP2 MSTORE PUSH1 0x4 ADD PUSH2 0x70C SWAP1 PUSH2 0x11F4 JUMP JUMPDEST PUSH1 0x40 MLOAD DUP1 SWAP2 SUB SWAP1 REVERT JUMPDEST PUSH1 0x6 PUSH0 CALLER PUSH20 0xFFFFFFFFFFFFFFFFFFFFFFFFFFFFFFFFFFFFFFFF AND PUSH20 0xFFFFFFFFFFFFFFFFFFFFFFFFFFFFFFFFFFFFFFFF AND DUP2 MSTORE PUSH1 0x20 ADD SWAP1 DUP2 MSTORE PUSH1 0x20 ADD PUSH0 KECCAK256 SLOAD DUP2 GT ISZERO PUSH2 0x795 JUMPI PUSH1 0x40 MLOAD PUSH32 0x8C379A000000000000000000000000000000000000000000000000000000000 DUP2 MSTORE PUSH1 0x4 ADD PUSH2 0x78C SWAP1 PUSH2 0x125C JUMP JUMPDEST PUSH1 0x40 MLOAD DUP1 SWAP2 SUB SWAP1 REVERT JUMPDEST DUP1 PUSH1 0x6 PUSH0 CALLER PUSH20 0xFFFFFFFFFFFFFFFFFFFFFFFFFFFFFFFFFFFFFFFF AND PUSH20 0xFFFFFFFFFFFFFFFFFFFFFFFFFFFFFFFFFFFFFFFF AND DUP2 MSTORE PUSH1 0x20 ADD SWAP1 DUP2 MSTORE PUSH1 0x20 ADD PUSH0 KECCAK256 PUSH0 DUP3 DUP3 SLOAD PUSH2 0x7E1 SWAP2 SWAP1 PUSH2 0x106B JUMP JUMPDEST SWAP3 POP POP DUP2 SWAP1 SSTORE POP CALLER PUSH20 0xFFFFFFFFFFFFFFFFFFFFFFFFFFFFFFFFFFFFFFFF AND PUSH2 0x8FC DUP3 SWAP1 DUP2 ISZERO MUL SWAP1 PUSH1 0x40 MLOAD PUSH0 PUSH1 0x40 MLOAD DUP1 DUP4 SUB DUP2 DUP6 DUP9 DUP9 CALL SWAP4 POP POP POP POP ISZERO DUP1 ISZERO PUSH2 0x82B JUMPI RETURNDATASIZE PUSH0 PUSH0 RETURNDATACOPY RETURNDATASIZE PUSH0 REVERT JUMPDEST POP PUSH2 0x834 PUSH2 0xDC9 JUMP JUMPDEST POP JUMP JUMPDEST PUSH2 0x83F PUSH2 0xD7C JUMP JUMPDEST PUSH0 CALLVALUE GT PUSH2 0x881 JUMPI PUSH1 0x40 MLOAD PUSH32 0x8C379A000000000000000000000000000000000000000000000000000000000 DUP2 MSTORE PUSH1 0x4 ADD PUSH2 0x878 SWAP1 PUSH2 0x12C4 JUMP JUMPDEST PUSH1 0x40 MLOAD DUP1 SWAP2 SUB SWAP1 REVERT JUMPDEST CALLVALUE PUSH1 0x6 PUSH0 CALLER PUSH20 0xFFFFFFFFFFFFFFFFFFFFFFFFFFFFFFFFFFFFFFFF AND PUSH20 0xFFFFFFFFFFFFFFFFFFFFFFFFFFFFFFFFFFFFFFFF AND DUP2 MSTORE PUSH1 0x20 ADD SWAP1 DUP2 MSTORE PUSH1 0x20 ADD PUSH0 KECCAK256 PUSH0 DUP3 DUP3 SLOAD PUSH2 0x8CD SWAP2 SWAP1 PUSH2 0xE08 JUMP JUMPDEST SWAP3 POP POP DUP2 SWAP1 SSTORE POP PUSH2 0x8DC PUSH2 0xDC9 JUMP JUMPDEST JUMP JUMPDEST PUSH1 0x2 SLOAD DUP2 JUMP JUMPDEST PUSH1 0x3 PUSH1 0x20 MSTORE DUP1 PUSH0 MSTORE PUSH1 0x40 PUSH0 KECCAK256 PUSH0 SWAP2 POP SWAP1 POP SLOAD DUP2 JUMP JUMPDEST PUSH1 0x6 PUSH1 0x20 MSTORE DUP1 PUSH0 MSTORE PUSH1 0x40 PUSH0 KECCAK256 PUSH0 SWAP2 POP SWAP1 POP SLOAD DUP2 JUMP JUMPDEST PUSH2 0x916 PUSH2 0xD7C JUMP JUMPDEST PUSH0 DUP2 GT PUSH2 0x958 JUMPI PUSH1 0x40 MLOAD PUSH32 0x8C379A000000000000000000000000000000000000000000000000000000000 DUP2 MSTORE PUSH1 0x4 ADD PUSH2 0x94F SWAP1 PUSH2 0x132C JUMP JUMPDEST PUSH1 0x40 MLOAD DUP1 SWAP2 SUB SWAP1 REVERT JUMPDEST PUSH1 0x1 PUSH0 SWAP1 SLOAD SWAP1 PUSH2 0x100 EXP SWAP1 DIV PUSH20 0xFFFFFFFFFFFFFFFFFFFFFFFFFFFFFFFFFFFFFFFF AND PUSH20 0xFFFFFFFFFFFFFFFFFFFFFFFFFFFFFFFFFFFFFFFF AND PUSH4 0x23B872DD CALLER ADDRESS DUP5 PUSH1 0x40 MLOAD DUP5 PUSH4 0xFFFFFFFF AND PUSH1 0xE0 SHL DUP2 MSTORE PUSH1 0x4 ADD PUSH2 0x9B6 SWAP4 SWAP3 SWAP2 SWAP1 PUSH2 0x10AD JUMP JUMPDEST PUSH1 0x20 PUSH1 0x40 MLOAD DUP1 DUP4 SUB DUP2 PUSH0 DUP8 GAS CALL ISZERO DUP1 ISZERO PUSH2 0x9D2 JUMPI RETURNDATASIZE PUSH0 PUSH0 RETURNDATACOPY RETURNDATASIZE PUSH0 REVERT JUMPDEST POP POP POP POP PUSH1 0x40 MLOAD RETURNDATASIZE PUSH1 0x1F NOT PUSH1 0x1F DUP3 ADD AND DUP3 ADD DUP1 PUSH1 0x40 MSTORE POP DUP2 ADD SWAP1 PUSH2 0x9F6 SWAP2 SWAP1 PUSH2 0x1117 JUMP JUMPDEST PUSH2 0xA35 JUMPI PUSH1 0x40 MLOAD PUSH32 0x8C379A000000000000000000000000000000000000000000000000000000000 DUP2 MSTORE PUSH1 0x4 ADD PUSH2 0xA2C SWAP1 PUSH2 0x118C JUMP JUMPDEST PUSH1 0x40 MLOAD DUP1 SWAP2 SUB SWAP1 REVERT JUMPDEST DUP1 PUSH1 0x3 PUSH0 CALLER PUSH20 0xFFFFFFFFFFFFFFFFFFFFFFFFFFFFFFFFFFFFFFFF AND PUSH20 0xFFFFFFFFFFFFFFFFFFFFFFFFFFFFFFFFFFFFFFFF AND DUP2 MSTORE PUSH1 0x20 ADD SWAP1 DUP2 MSTORE PUSH1 0x20 ADD PUSH0 KECCAK256 PUSH0 DUP3 DUP3 SLOAD PUSH2 0xA81 SWAP2 SWAP1 PUSH2 0xE08 JUMP JUMPDEST SWAP3 POP POP DUP2 SWAP1 SSTORE POP PUSH2 0xA90 PUSH2 0xDC9 JUMP JUMPDEST POP JUMP JUMPDEST PUSH1 0x7 SLOAD DUP2 JUMP JUMPDEST PUSH1 0x4 PUSH1 0x20 MSTORE DUP1 PUSH0 MSTORE PUSH1 0x40 PUSH0 KECCAK256 PUSH0 SWAP2 POP SWAP1 POP SLOAD DUP2 JUMP JUMPDEST PUSH2 0xAB6 PUSH2 0xD7C JUMP JUMPDEST PUSH0 DUP2 GT PUSH2 0xAF8 JUMPI PUSH1 0x40 MLOAD PUSH32 0x8C379A000000000000000000000000000000000000000000000000000000000 DUP2 MSTORE PUSH1 0x4 ADD PUSH2 0xAEF SWAP1 PUSH2 0x132C JUMP JUMPDEST PUSH1 0x40 MLOAD DUP1 SWAP2 SUB SWAP1 REVERT JUMPDEST PUSH0 PUSH1 0x64 PUSH1 0x7 SLOAD DUP4 PUSH2 0xB09 SWAP2 SWAP1 PUSH2 0x134A JUMP JUMPDEST PUSH2 0xB13 SWAP2 SWAP1 PUSH2 0x13B8 JUMP JUMPDEST SWAP1 POP DUP1 PUSH1 0x6 PUSH0 CALLER PUSH20 0xFFFFFFFFFFFFFFFFFFFFFFFFFFFFFFFFFFFFFFFF AND PUSH20 0xFFFFFFFFFFFFFFFFFFFFFFFFFFFFFFFFFFFFFFFF AND DUP2 MSTORE PUSH1 0x20 ADD SWAP1 DUP2 MSTORE PUSH1 0x20 ADD PUSH0 KECCAK256 SLOAD LT ISZERO PUSH2 0xB95 JUMPI PUSH1 0x40 MLOAD PUSH32 0x8C379A000000000000000000000000000000000000000000000000000000000 DUP2 MSTORE PUSH1 0x4 ADD PUSH2 0xB8C SWAP1 PUSH2 0x1432 JUMP JUMPDEST PUSH1 0x40 MLOAD DUP1 SWAP2 SUB SWAP1 REVERT JUMPDEST DUP2 PUSH1 0x4 PUSH0 CALLER PUSH20 0xFFFFFFFFFFFFFFFFFFFFFFFFFFFFFFFFFFFFFFFF AND PUSH20 0xFFFFFFFFFFFFFFFFFFFFFFFFFFFFFFFFFFFFFFFF AND DUP2 MSTORE PUSH1 0x20 ADD SWAP1 DUP2 MSTORE PUSH1 0x20 ADD PUSH0 KECCAK256 PUSH0 DUP3 DUP3 SLOAD PUSH2 0xBE1 SWAP2 SWAP1 PUSH2 0xE08 JUMP JUMPDEST SWAP3 POP POP DUP2 SWAP1 SSTORE POP TIMESTAMP PUSH1 0x5 PUSH0 CALLER PUSH20 0xFFFFFFFFFFFFFFFFFFFFFFFFFFFFFFFFFFFFFFFF AND PUSH20 0xFFFFFFFFFFFFFFFFFFFFFFFFFFFFFFFFFFFFFFFF AND DUP2 MSTORE PUSH1 0x20 ADD SWAP1 DUP2 MSTORE PUSH1 0x20 ADD PUSH0 KECCAK256 DUP2 SWAP1 SSTORE POP PUSH1 0x1 PUSH0 SWAP1 SLOAD SWAP1 PUSH2 0x100 EXP SWAP1 DIV PUSH20 0xFFFFFFFFFFFFFFFFFFFFFFFFFFFFFFFFFFFFFFFF AND PUSH20 0xFFFFFFFFFFFFFFFFFFFFFFFFFFFFFFFFFFFFFFFF AND PUSH4 0xA9059CBB CALLER DUP5 PUSH1 0x40 MLOAD DUP4 PUSH4 0xFFFFFFFF AND PUSH1 0xE0 SHL DUP2 MSTORE PUSH1 0x4 ADD PUSH2 0xC86 SWAP3 SWAP2 SWAP1 PUSH2 0x1450 JUMP JUMPDEST PUSH1 0x20 PUSH1 0x40 MLOAD DUP1 DUP4 SUB DUP2 PUSH0 DUP8 GAS CALL ISZERO DUP1 ISZERO PUSH2 0xCA2 JUMPI RETURNDATASIZE PUSH0 PUSH0 RETURNDATACOPY RETURNDATASIZE PUSH0 REVERT JUMPDEST POP POP POP POP PUSH1 0x40 MLOAD RETURNDATASIZE PUSH1 0x1F NOT PUSH1 0x1F DUP3 ADD AND DUP3 ADD DUP1 PUSH1 0x40 MSTORE POP DUP2 ADD SWAP1 PUSH2 0xCC6 SWAP2 SWAP1 PUSH2 0x1117 JUMP JUMPDEST PUSH2 0xD05 JUMPI PUSH1 0x40 MLOAD PUSH32 0x8C379A000000000000000000000000000000000000000000000000000000000 DUP2 MSTORE PUSH1 0x4 ADD PUSH2 0xCFC SWAP1 PUSH2 0x118C JUMP JUMPDEST PUSH1 0x40 MLOAD DUP1 SWAP2 SUB SWAP1 REVERT JUMPDEST POP PUSH2 0xD0E PUSH2 0xDC9 JUMP JUMPDEST POP JUMP JUMPDEST PUSH1 0x5 PUSH1 0x20 MSTORE DUP1 PUSH0 MSTORE PUSH1 0x40 PUSH0 KECCAK256 PUSH0 SWAP2 POP SWAP1 POP SLOAD DUP2 JUMP JUMPDEST PUSH0 PUSH4 0xBBF81E00 DUP3 PUSH1 0x2 SLOAD DUP6 PUSH2 0xD3B SWAP2 SWAP1 PUSH2 0x134A JUMP JUMPDEST PUSH2 0xD45 SWAP2 SWAP1 PUSH2 0x134A JUMP JUMPDEST PUSH2 0xD4F SWAP2 SWAP1 PUSH2 0x13B8 JUMP JUMPDEST SWAP1 POP SWAP3 SWAP2 POP POP JUMP JUMPDEST PUSH1 0x1 PUSH0 SWAP1 SLOAD SWAP1 PUSH2 0x100 EXP SWAP1 DIV PUSH20 0xFFFFFFFFFFFFFFFFFFFFFFFFFFFFFFFFFFFFFFFF AND DUP2 JUMP JUMPDEST PUSH1 0x2 PUSH0 SLOAD SUB PUSH2 0xDC0 JUMPI PUSH1 0x40 MLOAD PUSH32 0x8C379A000000000000000000000000000000000000000000000000000000000 DUP2 MSTORE PUSH1 0x4 ADD PUSH2 0xDB7 SWAP1 PUSH2 0x14C1 JUMP JUMPDEST PUSH1 0x40 MLOAD DUP1 SWAP2 SUB SWAP1 REVERT JUMPDEST PUSH1 0x2 PUSH0 DUP2 SWAP1 SSTORE POP JUMP JUMPDEST PUSH1 0x1 PUSH0 DUP2 SWAP1 SSTORE POP JUMP JUMPDEST PUSH0 DUP2 SWAP1 POP SWAP2 SWAP1 POP JUMP JUMPDEST PUSH32 0x4E487B7100000000000000000000000000000000000000000000000000000000 PUSH0 MSTORE PUSH1 0x11 PUSH1 0x4 MSTORE PUSH1 0x24 PUSH0 REVERT JUMPDEST PUSH0 PUSH2 0xE12 DUP3 PUSH2 0xDD2 JUMP JUMPDEST SWAP2 POP PUSH2 0xE1D DUP4 PUSH2 0xDD2 JUMP JUMPDEST SWAP3 POP DUP3 DUP3 ADD SWAP1 POP DUP1 DUP3 GT ISZERO PUSH2 0xE35 JUMPI PUSH2 0xE34 PUSH2 0xDDB JUMP JUMPDEST JUMPDEST SWAP3 SWAP2 POP POP JUMP JUMPDEST PUSH0 PUSH0 REVERT JUMPDEST PUSH2 0xE48 DUP2 PUSH2 0xDD2 JUMP JUMPDEST DUP2 EQ PUSH2 0xE52 JUMPI PUSH0 PUSH0 REVERT JUMPDEST POP JUMP JUMPDEST PUSH0 DUP2 CALLDATALOAD SWAP1 POP PUSH2 0xE63 DUP2 PUSH2 0xE3F JUMP JUMPDEST SWAP3 SWAP2 POP POP JUMP JUMPDEST PUSH0 PUSH1 0x20 DUP3 DUP5 SUB SLT ISZERO PUSH2 0xE7E JUMPI PUSH2 0xE7D PUSH2 0xE3B JUMP JUMPDEST JUMPDEST PUSH0 PUSH2 0xE8B DUP5 DUP3 DUP6 ADD PUSH2 0xE55 JUMP JUMPDEST SWAP2 POP POP SWAP3 SWAP2 POP POP JUMP JUMPDEST PUSH2 0xE9D DUP2 PUSH2 0xDD2 JUMP JUMPDEST DUP3 MSTORE POP POP JUMP JUMPDEST PUSH0 PUSH1 0x20 DUP3 ADD SWAP1 POP PUSH2 0xEB6 PUSH0 DUP4 ADD DUP5 PUSH2 0xE94 JUMP JUMPDEST SWAP3 SWAP2 POP POP JUMP JUMPDEST PUSH0 PUSH20 0xFFFFFFFFFFFFFFFFFFFFFFFFFFFFFFFFFFFFFFFF DUP3 AND SWAP1 POP SWAP2 SWAP1 POP JUMP JUMPDEST PUSH0 PUSH2 0xEE5 DUP3 PUSH2 0xEBC JUMP JUMPDEST SWAP1 POP SWAP2 SWAP1 POP JUMP JUMPDEST PUSH2 0xEF5 DUP2 PUSH2 0xEDB JUMP JUMPDEST DUP2 EQ PUSH2 0xEFF JUMPI PUSH0 PUSH0 REVERT JUMPDEST POP JUMP JUMPDEST PUSH0 DUP2 CALLDATALOAD SWAP1 POP PUSH2 0xF10 DUP2 PUSH2 0xEEC JUMP JUMPDEST SWAP3 SWAP2 POP POP JUMP JUMPDEST PUSH0 PUSH1 0x20 DUP3 DUP5 SUB SLT ISZERO PUSH2 0xF2B JUMPI PUSH2 0xF2A PUSH2 0xE3B JUMP JUMPDEST JUMPDEST PUSH0 PUSH2 0xF38 DUP5 DUP3 DUP6 ADD PUSH2 0xF02 JUMP JUMPDEST SWAP2 POP POP SWAP3 SWAP2 POP POP JUMP JUMPDEST PUSH0 PUSH0 PUSH1 0x40 DUP4 DUP6 SUB SLT ISZERO PUSH2 0xF57 JUMPI PUSH2 0xF56 PUSH2 0xE3B JUMP JUMPDEST JUMPDEST PUSH0 PUSH2 0xF64 DUP6 DUP3 DUP7 ADD PUSH2 0xE55 JUMP JUMPDEST SWAP3 POP POP PUSH1 0x20 PUSH2 0xF75 DUP6 DUP3 DUP7 ADD PUSH2 0xE55 JUMP JUMPDEST SWAP2 POP POP SWAP3 POP SWAP3 SWAP1 POP JUMP JUMPDEST PUSH0 DUP2 SWAP1 POP SWAP2 SWAP1 POP JUMP JUMPDEST PUSH0 PUSH2 0xFA2 PUSH2 0xF9D PUSH2 0xF98 DUP5 PUSH2 0xEBC JUMP JUMPDEST PUSH2 0xF7F JUMP JUMPDEST PUSH2 0xEBC JUMP JUMPDEST SWAP1 POP SWAP2 SWAP1 POP JUMP JUMPDEST PUSH0 PUSH2 0xFB3 DUP3 PUSH2 0xF88 JUMP JUMPDEST SWAP1 POP SWAP2 SWAP1 POP JUMP JUMPDEST PUSH0 PUSH2 0xFC4 DUP3 PUSH2 0xFA9 JUMP JUMPDEST SWAP1 POP SWAP2 SWAP1 POP JUMP JUMPDEST PUSH2 0xFD4 DUP2 PUSH2 0xFBA JUMP JUMPDEST DUP3 MSTORE POP POP JUMP JUMPDEST PUSH0 PUSH1 0x20 DUP3 ADD SWAP1 POP PUSH2 0xFED PUSH0 DUP4 ADD DUP5 PUSH2 0xFCB JUMP JUMPDEST SWAP3 SWAP2 POP POP JUMP JUMPDEST PUSH0 DUP3 DUP3 MSTORE PUSH1 0x20 DUP3 ADD SWAP1 POP SWAP3 SWAP2 POP POP JUMP JUMPDEST PUSH32 0x4E6F206F75747374616E64696E67206C6F616E00000000000000000000000000 PUSH0 DUP3 ADD MSTORE POP JUMP JUMPDEST PUSH0 PUSH2 0x1037 PUSH1 0x13 DUP4 PUSH2 0xFF3 JUMP JUMPDEST SWAP2 POP PUSH2 0x1042 DUP3 PUSH2 0x1003 JUMP JUMPDEST PUSH1 0x20 DUP3 ADD SWAP1 POP SWAP2 SWAP1 POP JUMP JUMPDEST PUSH0 PUSH1 0x20 DUP3 ADD SWAP1 POP DUP2 DUP2 SUB PUSH0 DUP4 ADD MSTORE PUSH2 0x1064 DUP2 PUSH2 0x102B JUMP JUMPDEST SWAP1 POP SWAP2 SWAP1 POP JUMP JUMPDEST PUSH0 PUSH2 0x1075 DUP3 PUSH2 0xDD2 JUMP JUMPDEST SWAP2 POP PUSH2 0x1080 DUP4 PUSH2 0xDD2 JUMP JUMPDEST SWAP3 POP DUP3 DUP3 SUB SWAP1 POP DUP2 DUP2 GT ISZERO PUSH2 0x1098 JUMPI PUSH2 0x1097 PUSH2 0xDDB JUMP JUMPDEST JUMPDEST SWAP3 SWAP2 POP POP JUMP JUMPDEST PUSH2 0x10A7 DUP2 PUSH2 0xEDB JUMP JUMPDEST DUP3 MSTORE POP POP JUMP JUMPDEST PUSH0 PUSH1 0x60 DUP3 ADD SWAP1 POP PUSH2 0x10C0 PUSH0 DUP4 ADD DUP7 PUSH2 0x109E JUMP JUMPDEST PUSH2 0x10CD PUSH1 0x20 DUP4 ADD DUP6 PUSH2 0x109E JUMP JUMPDEST PUSH2 0x10DA PUSH1 0x40 DUP4 ADD DUP5 PUSH2 0xE94 JUMP JUMPDEST SWAP5 SWAP4 POP POP POP POP JUMP JUMPDEST PUSH0 DUP2 ISZERO ISZERO SWAP1 POP SWAP2 SWAP1 POP JUMP JUMPDEST PUSH2 0x10F6 DUP2 PUSH2 0x10E2 JUMP JUMPDEST DUP2 EQ PUSH2 0x1100 JUMPI PUSH0 PUSH0 REVERT JUMPDEST POP JUMP JUMPDEST PUSH0 DUP2 MLOAD SWAP1 POP PUSH2 0x1111 DUP2 PUSH2 0x10ED JUMP JUMPDEST SWAP3 SWAP2 POP POP JUMP JUMPDEST PUSH0 PUSH1 0x20 DUP3 DUP5 SUB SLT ISZERO PUSH2 0x112C JUMPI PUSH2 0x112B PUSH2 0xE3B JUMP JUMPDEST JUMPDEST PUSH0 PUSH2 0x1139 DUP5 DUP3 DUP6 ADD PUSH2 0x1103 JUMP JUMPDEST SWAP2 POP POP SWAP3 SWAP2 POP POP JUMP JUMPDEST PUSH32 0x546F6B656E207472616E73666572206661696C65640000000000000000000000 PUSH0 DUP3 ADD MSTORE POP JUMP JUMPDEST PUSH0 PUSH2 0x1176 PUSH1 0x15 DUP4 PUSH2 0xFF3 JUMP JUMPDEST SWAP2 POP PUSH2 0x1181 DUP3 PUSH2 0x1142 JUMP JUMPDEST PUSH1 0x20 DUP3 ADD SWAP1 POP SWAP2 SWAP1 POP JUMP JUMPDEST PUSH0 PUSH1 0x20 DUP3 ADD SWAP1 POP DUP2 DUP2 SUB PUSH0 DUP4 ADD MSTORE PUSH2 0x11A3 DUP2 PUSH2 0x116A JUMP JUMPDEST SWAP1 POP SWAP2 SWAP1 POP JUMP JUMPDEST PUSH32 0x4F75747374616E64696E67206C6F616E20657869737473000000000000000000 PUSH0 DUP3 ADD MSTORE POP JUMP JUMPDEST PUSH0 PUSH2 0x11DE PUSH1 0x17 DUP4 PUSH2 0xFF3 JUMP JUMPDEST SWAP2 POP PUSH2 0x11E9 DUP3 PUSH2 0x11AA JUMP JUMPDEST PUSH1 0x20 DUP3 ADD SWAP1 POP SWAP2 SWAP1 POP JUMP JUMPDEST PUSH0 PUSH1 0x20 DUP3 ADD SWAP1 POP DUP2 DUP2 SUB PUSH0 DUP4 ADD MSTORE PUSH2 0x120B DUP2 PUSH2 0x11D2 JUMP JUMPDEST SWAP1 POP SWAP2 SWAP1 POP JUMP JUMPDEST PUSH32 0x4E6F7420656E6F75676820636F6C6C61746572616C0000000000000000000000 PUSH0 DUP3 ADD MSTORE POP JUMP JUMPDEST PUSH0 PUSH2 0x1246 PUSH1 0x15 DUP4 PUSH2 0xFF3 JUMP JUMPDEST SWAP2 POP PUSH2 0x1251 DUP3 PUSH2 0x1212 JUMP JUMPDEST PUSH1 0x20 DUP3 ADD SWAP1 POP SWAP2 SWAP1 POP JUMP JUMPDEST PUSH0 PUSH1 0x20 DUP3 ADD SWAP1 POP DUP2 DUP2 SUB PUSH0 DUP4 ADD MSTORE PUSH2 0x1273 DUP2 PUSH2 0x123A JUMP JUMPDEST SWAP1 POP SWAP2 SWAP1 POP JUMP JUMPDEST PUSH32 0x4D7573742073656E642045746865720000000000000000000000000000000000 PUSH0 DUP3 ADD MSTORE POP JUMP JUMPDEST PUSH0 PUSH2 0x12AE PUSH1 0xF DUP4 PUSH2 0xFF3 JUMP JUMPDEST SWAP2 POP PUSH2 0x12B9 DUP3 PUSH2 0x127A JUMP JUMPDEST PUSH1 0x20 DUP3 ADD SWAP1 POP SWAP2 SWAP1 POP JUMP JUMPDEST PUSH0 PUSH1 0x20 DUP3 ADD SWAP1 POP DUP2 DUP2 SUB PUSH0 DUP4 ADD MSTORE PUSH2 0x12DB DUP2 PUSH2 0x12A2 JUMP JUMPDEST SWAP1 POP SWAP2 SWAP1 POP JUMP JUMPDEST PUSH32 0x416D6F756E74206D7573742062652067726561746572207468616E207A65726F PUSH0 DUP3 ADD MSTORE POP JUMP JUMPDEST PUSH0 PUSH2 0x1316 PUSH1 0x20 DUP4 PUSH2 0xFF3 JUMP JUMPDEST SWAP2 POP PUSH2 0x1321 DUP3 PUSH2 0x12E2 JUMP JUMPDEST PUSH1 0x20 DUP3 ADD SWAP1 POP SWAP2 SWAP1 POP JUMP JUMPDEST PUSH0 PUSH1 0x20 DUP3 ADD SWAP1 POP DUP2 DUP2 SUB PUSH0 DUP4 ADD MSTORE PUSH2 0x1343 DUP2 PUSH2 0x130A JUMP JUMPDEST SWAP1 POP SWAP2 SWAP1 POP JUMP JUMPDEST PUSH0 PUSH2 0x1354 DUP3 PUSH2 0xDD2 JUMP JUMPDEST SWAP2 POP PUSH2 0x135F DUP4 PUSH2 0xDD2 JUMP JUMPDEST SWAP3 POP DUP3 DUP3 MUL PUSH2 0x136D DUP2 PUSH2 0xDD2 JUMP JUMPDEST SWAP2 POP DUP3 DUP3 DIV DUP5 EQ DUP4 ISZERO OR PUSH2 0x1384 JUMPI PUSH2 0x1383 PUSH2 0xDDB JUMP JUMPDEST JUMPDEST POP SWAP3 SWAP2 POP POP JUMP JUMPDEST PUSH32 0x4E487B7100000000000000000000000000000000000000000000000000000000 PUSH0 MSTORE PUSH1 0x12 PUSH1 0x4 MSTORE PUSH1 0x24 PUSH0 REVERT JUMPDEST PUSH0 PUSH2 0x13C2 DUP3 PUSH2 0xDD2 JUMP JUMPDEST SWAP2 POP PUSH2 0x13CD DUP4 PUSH2 0xDD2 JUMP JUMPDEST SWAP3 POP DUP3 PUSH2 0x13DD JUMPI PUSH2 0x13DC PUSH2 0x138B JUMP JUMPDEST JUMPDEST DUP3 DUP3 DIV SWAP1 POP SWAP3 SWAP2 POP POP JUMP JUMPDEST PUSH32 0x496E73756666696369656E7420636F6C6C61746572616C000000000000000000 PUSH0 DUP3 ADD MSTORE POP JUMP JUMPDEST PUSH0 PUSH2 0x141C PUSH1 0x17 DUP4 PUSH2 0xFF3 JUMP JUMPDEST SWAP2 POP PUSH2 0x1427 DUP3 PUSH2 0x13E8 JUMP JUMPDEST PUSH1 0x20 DUP3 ADD SWAP1 POP SWAP2 SWAP1 POP JUMP JUMPDEST PUSH0 PUSH1 0x20 DUP3 ADD SWAP1 POP DUP2 DUP2 SUB PUSH0 DUP4 ADD MSTORE PUSH2 0x1449 DUP2 PUSH2 0x1410 JUMP JUMPDEST SWAP1 POP SWAP2 SWAP1 POP JUMP JUMPDEST PUSH0 PUSH1 0x40 DUP3 ADD SWAP1 POP PUSH2 0x1463 PUSH0 DUP4 ADD DUP6 PUSH2 0x109E JUMP JUMPDEST PUSH2 0x1470 PUSH1 0x20 DUP4 ADD DUP5 PUSH2 0xE94 JUMP JUMPDEST SWAP4 SWAP3 POP POP POP JUMP JUMPDEST PUSH32 0x5265656E7472616E637947756172643A207265656E7472616E742063616C6C00 PUSH0 DUP3 ADD MSTORE POP JUMP JUMPDEST PUSH0 PUSH2 0x14AB PUSH1 0x1F DUP4 PUSH2 0xFF3 JUMP JUMPDEST SWAP2 POP PUSH2 0x14B6 DUP3 PUSH2 0x1477 JUMP JUMPDEST PUSH1 0x20 DUP3 ADD SWAP1 POP SWAP2 SWAP1 POP JUMP JUMPDEST PUSH0 PUSH1 0x20 DUP3 ADD SWAP1 POP DUP2 DUP2 SUB PUSH0 DUP4 ADD MSTORE PUSH2 0x14D8 DUP2 PUSH2 0x149F JUMP JUMPDEST SWAP1 POP SWAP2 SWAP1 POP JUMP INVALID LOG2 PUSH5 0x6970667358 0x22 SLT KECCAK256 0x2E LOG2 EXTCALL 0xB1 ADDRESS EXTCODEHASH LOG3 ISZERO 0xBD CREATE 0x29 MUL PUSH21 0xDD6D97BF5CAA9A38237FE6EFAB5ECFD7182A266473 PUSH16 0x6C634300081E00330000000000000000 "
				},
				"gasEstimates": {
					"creation": {
						"codeDepositCost": "1079400",
						"executionCost": "infinite",
						"totalCost": "infinite"
					},
					"external": {
						"borrow(uint256)": "infinite",
						"borrowStartTime(address)": "2846",
						"borrowingBalance(address)": "2869",
						"calculateInterest(uint256,uint256)": "infinite",
						"collateralBalance(address)": "2913",
						"collateralRatio()": "2470",
						"depositCollateral()": "infinite",
						"interestRate()": "2492",
						"lend(uint256)": "infinite",
						"lendingBalance(address)": "2891",
						"repay()": "infinite",
						"token()": "infinite",
						"withdrawCollateral(uint256)": "infinite"
					}
				},
				"methodIdentifiers": {
					"borrow(uint256)": "c5ebeaec",
					"borrowStartTime(address)": "dad919ec",
					"borrowingBalance(address)": "b750333e",
					"calculateInterest(uint256,uint256)": "efdd7c07",
					"collateralBalance(address)": "a1bf2840",
					"collateralRatio()": "b4eae1cb",
					"depositCollateral()": "6f758140",
					"interestRate()": "7c3a00fd",
					"lend(uint256)": "a6aa57ce",
					"lendingBalance(address)": "7f10883b",
					"repay()": "402d8883",
					"token()": "fc0c546a",
					"withdrawCollateral(uint256)": "6112fe2e"
				}
			},
			"storageLayout": {
				"storage": [
					{
						"astId": 10,
						"contract": "contracts/LendingPlatformWithCollateral.sol:LendingPlatformWithCollateral",
						"label": "_status",
						"offset": 0,
						"slot": "0",
						"type": "t_uint256"
					},
					{
						"astId": 151,
						"contract": "contracts/LendingPlatformWithCollateral.sol:LendingPlatformWithCollateral",
						"label": "token",
						"offset": 0,
						"slot": "1",
						"type": "t_contract(IERC20)142"
					},
					{
						"astId": 153,
						"contract": "contracts/LendingPlatformWithCollateral.sol:LendingPlatformWithCollateral",
						"label": "interestRate",
						"offset": 0,
						"slot": "2",
						"type": "t_uint256"
					},
					{
						"astId": 157,
						"contract": "contracts/LendingPlatformWithCollateral.sol:LendingPlatformWithCollateral",
						"label": "lendingBalance",
						"offset": 0,
						"slot": "3",
						"type": "t_mapping(t_address,t_uint256)"
					},
					{
						"astId": 161,
						"contract": "contracts/LendingPlatformWithCollateral.sol:LendingPlatformWithCollateral",
						"label": "borrowingBalance",
						"offset": 0,
						"slot": "4",
						"type": "t_mapping(t_address,t_uint256)"
					},
					{
						"astId": 165,
						"contract": "contracts/LendingPlatformWithCollateral.sol:LendingPlatformWithCollateral",
						"label": "borrowStartTime",
						"offset": 0,
						"slot": "5",
						"type": "t_mapping(t_address,t_uint256)"
					},
					{
						"astId": 169,
						"contract": "contracts/LendingPlatformWithCollateral.sol:LendingPlatformWithCollateral",
						"label": "collateralBalance",
						"offset": 0,
						"slot": "6",
						"type": "t_mapping(t_address,t_uint256)"
					},
					{
						"astId": 172,
						"contract": "contracts/LendingPlatformWithCollateral.sol:LendingPlatformWithCollateral",
						"label": "collateralRatio",
						"offset": 0,
						"slot": "7",
						"type": "t_uint256"
					}
				],
				"types": {
					"t_address": {
						"encoding": "inplace",
						"label": "address",
						"numberOfBytes": "20"
					},
					"t_contract(IERC20)142": {
						"encoding": "inplace",
						"label": "contract IERC20",
						"numberOfBytes": "20"
					},
					"t_mapping(t_address,t_uint256)": {
						"encoding": "mapping",
						"key": "t_address",
						"label": "mapping(address => uint256)",
						"numberOfBytes": "32",
						"value": "t_uint256"
					},
					"t_uint256": {
						"encoding": "inplace",
						"label": "uint256",
						"numberOfBytes": "32"
					}
				}
			},
			"userdoc": {
				"kind": "user",
				"methods": {},
				"version": 1
			}
		}
	}
}